{
	"RemixFundMe/ChainLinkPriceFeed.sol": {
		"PriceConsumer": {
			"abi": [
				{
					"inputs": [],
					"stateMutability": "nonpayable",
					"type": "constructor"
				},
				{
					"inputs": [],
					"name": "getLatestPriceData",
					"outputs": [
						{
							"internalType": "uint80",
							"name": "roundId",
							"type": "uint80"
						},
						{
							"internalType": "int256",
							"name": "price",
							"type": "int256"
						},
						{
							"internalType": "uint256",
							"name": "startedAt",
							"type": "uint256"
						},
						{
							"internalType": "uint256",
							"name": "updatedAt",
							"type": "uint256"
						},
						{
							"internalType": "uint80",
							"name": "answeredInRound",
							"type": "uint80"
						}
					],
					"stateMutability": "view",
					"type": "function"
				}
			],
			"devdoc": {
				"kind": "dev",
				"methods": {},
				"version": 1
			},
			"evm": {
				"assembly": "    /* \"RemixFundMe/ChainLinkPriceFeed.sol\":169:751  contract PriceConsumer{... */\n  mstore(0x40, 0x80)\n    /* \"RemixFundMe/ChainLinkPriceFeed.sol\":249:362  constructor () {... */\n  callvalue\n  dup1\n  iszero\n  tag_1\n  jumpi\n  0x00\n  dup1\n  revert\ntag_1:\n  pop\n    /* \"RemixFundMe/ChainLinkPriceFeed.sol\":309:351  0x694AA1769357215DE4FAC081bf1f309aDC325306 */\n  0x694aa1769357215de4fac081bf1f309adc325306\n    /* \"RemixFundMe/ChainLinkPriceFeed.sol\":275:284  priceFeed */\n  0x00\n  dup1\n    /* \"RemixFundMe/ChainLinkPriceFeed.sol\":275:352  priceFeed = AggregatorV3Interface(0x694AA1769357215DE4FAC081bf1f309aDC325306) */\n  0x0100\n  exp\n  dup2\n  sload\n  dup2\n  0xffffffffffffffffffffffffffffffffffffffff\n  mul\n  not\n  and\n  swap1\n  dup4\n  0xffffffffffffffffffffffffffffffffffffffff\n  and\n  mul\n  or\n  swap1\n  sstore\n  pop\n    /* \"RemixFundMe/ChainLinkPriceFeed.sol\":169:751  contract PriceConsumer{... */\n  dataSize(sub_0)\n  dup1\n  dataOffset(sub_0)\n  0x00\n  codecopy\n  0x00\n  return\nstop\n\nsub_0: assembly {\n        /* \"RemixFundMe/ChainLinkPriceFeed.sol\":169:751  contract PriceConsumer{... */\n      mstore(0x40, 0x80)\n      callvalue\n      dup1\n      iszero\n      tag_1\n      jumpi\n      0x00\n      dup1\n      revert\n    tag_1:\n      pop\n      jumpi(tag_2, lt(calldatasize, 0x04))\n      shr(0xe0, calldataload(0x00))\n      dup1\n      0x5abd0f64\n      eq\n      tag_3\n      jumpi\n    tag_2:\n      0x00\n      dup1\n      revert\n        /* \"RemixFundMe/ChainLinkPriceFeed.sol\":371:746  function getLatestPriceData() public view returns (... */\n    tag_3:\n      tag_4\n      tag_5\n      jump\t// in\n    tag_4:\n      mload(0x40)\n      tag_6\n      swap6\n      swap5\n      swap4\n      swap3\n      swap2\n      swap1\n      tag_7\n      jump\t// in\n    tag_6:\n      mload(0x40)\n      dup1\n      swap2\n      sub\n      swap1\n      return\n    tag_5:\n        /* \"RemixFundMe/ChainLinkPriceFeed.sol\":432:446  uint80 roundId */\n      0x00\n        /* \"RemixFundMe/ChainLinkPriceFeed.sol\":457:469  int256 price */\n      dup1\n        /* \"RemixFundMe/ChainLinkPriceFeed.sol\":480:497  uint256 startedAt */\n      0x00\n        /* \"RemixFundMe/ChainLinkPriceFeed.sol\":508:525  uint256 updatedAt */\n      dup1\n        /* \"RemixFundMe/ChainLinkPriceFeed.sol\":536:558  uint80 answeredInRound */\n      0x00\n        /* \"RemixFundMe/ChainLinkPriceFeed.sol\":711:720  priceFeed */\n      dup1\n      0x00\n      swap1\n      sload\n      swap1\n      0x0100\n      exp\n      swap1\n      div\n      0xffffffffffffffffffffffffffffffffffffffff\n      and\n        /* \"RemixFundMe/ChainLinkPriceFeed.sol\":711:736  priceFeed.latestRoundData */\n      0xffffffffffffffffffffffffffffffffffffffff\n      and\n      0xfeaf968c\n        /* \"RemixFundMe/ChainLinkPriceFeed.sol\":711:738  priceFeed.latestRoundData() */\n      mload(0x40)\n      dup2\n      0xffffffff\n      and\n      0xe0\n      shl\n      dup2\n      mstore\n      0x04\n      add\n      0xa0\n      mload(0x40)\n      dup1\n      dup4\n      sub\n      dup2\n      dup7\n      gas\n      staticcall\n      iszero\n      dup1\n      iszero\n      tag_10\n      jumpi\n      returndatasize\n      0x00\n      dup1\n      returndatacopy\n      revert(0x00, returndatasize)\n    tag_10:\n      pop\n      pop\n      pop\n      pop\n      mload(0x40)\n      returndatasize\n      not(0x1f)\n      0x1f\n      dup3\n      add\n      and\n      dup3\n      add\n      dup1\n      0x40\n      mstore\n      pop\n      dup2\n      add\n      swap1\n      tag_11\n      swap2\n      swap1\n      tag_12\n      jump\t// in\n    tag_11:\n        /* \"RemixFundMe/ChainLinkPriceFeed.sol\":577:738  (... */\n      dup1\n      swap6\n      pop\n      dup2\n      swap7\n      pop\n      dup3\n      swap8\n      pop\n      dup4\n      swap9\n      pop\n      dup5\n      swap10\n      pop\n      pop\n      pop\n      pop\n      pop\n      pop\n        /* \"RemixFundMe/ChainLinkPriceFeed.sol\":371:746  function getLatestPriceData() public view returns (... */\n      swap1\n      swap2\n      swap3\n      swap4\n      swap5\n      jump\t// out\n        /* \"#utility.yul\":7:112   */\n    tag_13:\n        /* \"#utility.yul\":43:50   */\n      0x00\n        /* \"#utility.yul\":83:105   */\n      0xffffffffffffffffffff\n        /* \"#utility.yul\":76:81   */\n      dup3\n        /* \"#utility.yul\":72:106   */\n      and\n        /* \"#utility.yul\":61:106   */\n      swap1\n      pop\n        /* \"#utility.yul\":7:112   */\n      swap2\n      swap1\n      pop\n      jump\t// out\n        /* \"#utility.yul\":118:233   */\n    tag_14:\n        /* \"#utility.yul\":203:226   */\n      tag_31\n        /* \"#utility.yul\":220:225   */\n      dup2\n        /* \"#utility.yul\":203:226   */\n      tag_13\n      jump\t// in\n    tag_31:\n        /* \"#utility.yul\":198:201   */\n      dup3\n        /* \"#utility.yul\":191:227   */\n      mstore\n        /* \"#utility.yul\":118:233   */\n      pop\n      pop\n      jump\t// out\n        /* \"#utility.yul\":239:315   */\n    tag_15:\n        /* \"#utility.yul\":275:282   */\n      0x00\n        /* \"#utility.yul\":304:309   */\n      dup2\n        /* \"#utility.yul\":293:309   */\n      swap1\n      pop\n        /* \"#utility.yul\":239:315   */\n      swap2\n      swap1\n      pop\n      jump\t// out\n        /* \"#utility.yul\":321:436   */\n    tag_16:\n        /* \"#utility.yul\":406:429   */\n      tag_34\n        /* \"#utility.yul\":423:428   */\n      dup2\n        /* \"#utility.yul\":406:429   */\n      tag_15\n      jump\t// in\n    tag_34:\n        /* \"#utility.yul\":401:404   */\n      dup3\n        /* \"#utility.yul\":394:430   */\n      mstore\n        /* \"#utility.yul\":321:436   */\n      pop\n      pop\n      jump\t// out\n        /* \"#utility.yul\":442:519   */\n    tag_17:\n        /* \"#utility.yul\":479:486   */\n      0x00\n        /* \"#utility.yul\":508:513   */\n      dup2\n        /* \"#utility.yul\":497:513   */\n      swap1\n      pop\n        /* \"#utility.yul\":442:519   */\n      swap2\n      swap1\n      pop\n      jump\t// out\n        /* \"#utility.yul\":525:643   */\n    tag_18:\n        /* \"#utility.yul\":612:636   */\n      tag_37\n        /* \"#utility.yul\":630:635   */\n      dup2\n        /* \"#utility.yul\":612:636   */\n      tag_17\n      jump\t// in\n    tag_37:\n        /* \"#utility.yul\":607:610   */\n      dup3\n        /* \"#utility.yul\":600:637   */\n      mstore\n        /* \"#utility.yul\":525:643   */\n      pop\n      pop\n      jump\t// out\n        /* \"#utility.yul\":649:1301   */\n    tag_7:\n        /* \"#utility.yul\":848:852   */\n      0x00\n        /* \"#utility.yul\":886:889   */\n      0xa0\n        /* \"#utility.yul\":875:884   */\n      dup3\n        /* \"#utility.yul\":871:890   */\n      add\n        /* \"#utility.yul\":863:890   */\n      swap1\n      pop\n        /* \"#utility.yul\":900:969   */\n      tag_39\n        /* \"#utility.yul\":966:967   */\n      0x00\n        /* \"#utility.yul\":955:964   */\n      dup4\n        /* \"#utility.yul\":951:968   */\n      add\n        /* \"#utility.yul\":942:948   */\n      dup9\n        /* \"#utility.yul\":900:969   */\n      tag_14\n      jump\t// in\n    tag_39:\n        /* \"#utility.yul\":979:1049   */\n      tag_40\n        /* \"#utility.yul\":1045:1047   */\n      0x20\n        /* \"#utility.yul\":1034:1043   */\n      dup4\n        /* \"#utility.yul\":1030:1048   */\n      add\n        /* \"#utility.yul\":1021:1027   */\n      dup8\n        /* \"#utility.yul\":979:1049   */\n      tag_16\n      jump\t// in\n    tag_40:\n        /* \"#utility.yul\":1059:1131   */\n      tag_41\n        /* \"#utility.yul\":1127:1129   */\n      0x40\n        /* \"#utility.yul\":1116:1125   */\n      dup4\n        /* \"#utility.yul\":1112:1130   */\n      add\n        /* \"#utility.yul\":1103:1109   */\n      dup7\n        /* \"#utility.yul\":1059:1131   */\n      tag_18\n      jump\t// in\n    tag_41:\n        /* \"#utility.yul\":1141:1213   */\n      tag_42\n        /* \"#utility.yul\":1209:1211   */\n      0x60\n        /* \"#utility.yul\":1198:1207   */\n      dup4\n        /* \"#utility.yul\":1194:1212   */\n      add\n        /* \"#utility.yul\":1185:1191   */\n      dup6\n        /* \"#utility.yul\":1141:1213   */\n      tag_18\n      jump\t// in\n    tag_42:\n        /* \"#utility.yul\":1223:1294   */\n      tag_43\n        /* \"#utility.yul\":1289:1292   */\n      0x80\n        /* \"#utility.yul\":1278:1287   */\n      dup4\n        /* \"#utility.yul\":1274:1293   */\n      add\n        /* \"#utility.yul\":1265:1271   */\n      dup5\n        /* \"#utility.yul\":1223:1294   */\n      tag_14\n      jump\t// in\n    tag_43:\n        /* \"#utility.yul\":649:1301   */\n      swap7\n      swap6\n      pop\n      pop\n      pop\n      pop\n      pop\n      pop\n      jump\t// out\n        /* \"#utility.yul\":1388:1505   */\n    tag_20:\n        /* \"#utility.yul\":1497:1498   */\n      0x00\n        /* \"#utility.yul\":1494:1495   */\n      dup1\n        /* \"#utility.yul\":1487:1499   */\n      revert\n        /* \"#utility.yul\":1634:1754   */\n    tag_22:\n        /* \"#utility.yul\":1706:1729   */\n      tag_48\n        /* \"#utility.yul\":1723:1728   */\n      dup2\n        /* \"#utility.yul\":1706:1729   */\n      tag_13\n      jump\t// in\n    tag_48:\n        /* \"#utility.yul\":1699:1704   */\n      dup2\n        /* \"#utility.yul\":1696:1730   */\n      eq\n        /* \"#utility.yul\":1686:1748   */\n      tag_49\n      jumpi\n        /* \"#utility.yul\":1744:1745   */\n      0x00\n        /* \"#utility.yul\":1741:1742   */\n      dup1\n        /* \"#utility.yul\":1734:1746   */\n      revert\n        /* \"#utility.yul\":1686:1748   */\n    tag_49:\n        /* \"#utility.yul\":1634:1754   */\n      pop\n      jump\t// out\n        /* \"#utility.yul\":1760:1901   */\n    tag_23:\n        /* \"#utility.yul\":1816:1821   */\n      0x00\n        /* \"#utility.yul\":1847:1853   */\n      dup2\n        /* \"#utility.yul\":1841:1854   */\n      mload\n        /* \"#utility.yul\":1832:1854   */\n      swap1\n      pop\n        /* \"#utility.yul\":1863:1895   */\n      tag_51\n        /* \"#utility.yul\":1889:1894   */\n      dup2\n        /* \"#utility.yul\":1863:1895   */\n      tag_22\n      jump\t// in\n    tag_51:\n        /* \"#utility.yul\":1760:1901   */\n      swap3\n      swap2\n      pop\n      pop\n      jump\t// out\n        /* \"#utility.yul\":1907:2027   */\n    tag_24:\n        /* \"#utility.yul\":1979:2002   */\n      tag_53\n        /* \"#utility.yul\":1996:2001   */\n      dup2\n        /* \"#utility.yul\":1979:2002   */\n      tag_15\n      jump\t// in\n    tag_53:\n        /* \"#utility.yul\":1972:1977   */\n      dup2\n        /* \"#utility.yul\":1969:2003   */\n      eq\n        /* \"#utility.yul\":1959:2021   */\n      tag_54\n      jumpi\n        /* \"#utility.yul\":2017:2018   */\n      0x00\n        /* \"#utility.yul\":2014:2015   */\n      dup1\n        /* \"#utility.yul\":2007:2019   */\n      revert\n        /* \"#utility.yul\":1959:2021   */\n    tag_54:\n        /* \"#utility.yul\":1907:2027   */\n      pop\n      jump\t// out\n        /* \"#utility.yul\":2033:2174   */\n    tag_25:\n        /* \"#utility.yul\":2089:2094   */\n      0x00\n        /* \"#utility.yul\":2120:2126   */\n      dup2\n        /* \"#utility.yul\":2114:2127   */\n      mload\n        /* \"#utility.yul\":2105:2127   */\n      swap1\n      pop\n        /* \"#utility.yul\":2136:2168   */\n      tag_56\n        /* \"#utility.yul\":2162:2167   */\n      dup2\n        /* \"#utility.yul\":2136:2168   */\n      tag_24\n      jump\t// in\n    tag_56:\n        /* \"#utility.yul\":2033:2174   */\n      swap3\n      swap2\n      pop\n      pop\n      jump\t// out\n        /* \"#utility.yul\":2180:2302   */\n    tag_26:\n        /* \"#utility.yul\":2253:2277   */\n      tag_58\n        /* \"#utility.yul\":2271:2276   */\n      dup2\n        /* \"#utility.yul\":2253:2277   */\n      tag_17\n      jump\t// in\n    tag_58:\n        /* \"#utility.yul\":2246:2251   */\n      dup2\n        /* \"#utility.yul\":2243:2278   */\n      eq\n        /* \"#utility.yul\":2233:2296   */\n      tag_59\n      jumpi\n        /* \"#utility.yul\":2292:2293   */\n      0x00\n        /* \"#utility.yul\":2289:2290   */\n      dup1\n        /* \"#utility.yul\":2282:2294   */\n      revert\n        /* \"#utility.yul\":2233:2296   */\n    tag_59:\n        /* \"#utility.yul\":2180:2302   */\n      pop\n      jump\t// out\n        /* \"#utility.yul\":2308:2451   */\n    tag_27:\n        /* \"#utility.yul\":2365:2370   */\n      0x00\n        /* \"#utility.yul\":2396:2402   */\n      dup2\n        /* \"#utility.yul\":2390:2403   */\n      mload\n        /* \"#utility.yul\":2381:2403   */\n      swap1\n      pop\n        /* \"#utility.yul\":2412:2445   */\n      tag_61\n        /* \"#utility.yul\":2439:2444   */\n      dup2\n        /* \"#utility.yul\":2412:2445   */\n      tag_26\n      jump\t// in\n    tag_61:\n        /* \"#utility.yul\":2308:2451   */\n      swap3\n      swap2\n      pop\n      pop\n      jump\t// out\n        /* \"#utility.yul\":2457:3428   */\n    tag_12:\n        /* \"#utility.yul\":2560:2566   */\n      0x00\n        /* \"#utility.yul\":2568:2574   */\n      dup1\n        /* \"#utility.yul\":2576:2582   */\n      0x00\n        /* \"#utility.yul\":2584:2590   */\n      dup1\n        /* \"#utility.yul\":2592:2598   */\n      0x00\n        /* \"#utility.yul\":2641:2644   */\n      0xa0\n        /* \"#utility.yul\":2629:2638   */\n      dup7\n        /* \"#utility.yul\":2620:2627   */\n      dup9\n        /* \"#utility.yul\":2616:2639   */\n      sub\n        /* \"#utility.yul\":2612:2645   */\n      slt\n        /* \"#utility.yul\":2609:2729   */\n      iszero\n      tag_63\n      jumpi\n        /* \"#utility.yul\":2648:2727   */\n      tag_64\n      tag_20\n      jump\t// in\n    tag_64:\n        /* \"#utility.yul\":2609:2729   */\n    tag_63:\n        /* \"#utility.yul\":2768:2769   */\n      0x00\n        /* \"#utility.yul\":2793:2856   */\n      tag_65\n        /* \"#utility.yul\":2848:2855   */\n      dup9\n        /* \"#utility.yul\":2839:2845   */\n      dup3\n        /* \"#utility.yul\":2828:2837   */\n      dup10\n        /* \"#utility.yul\":2824:2846   */\n      add\n        /* \"#utility.yul\":2793:2856   */\n      tag_23\n      jump\t// in\n    tag_65:\n        /* \"#utility.yul\":2783:2856   */\n      swap6\n      pop\n        /* \"#utility.yul\":2739:2866   */\n      pop\n        /* \"#utility.yul\":2905:2907   */\n      0x20\n        /* \"#utility.yul\":2931:2994   */\n      tag_66\n        /* \"#utility.yul\":2986:2993   */\n      dup9\n        /* \"#utility.yul\":2977:2983   */\n      dup3\n        /* \"#utility.yul\":2966:2975   */\n      dup10\n        /* \"#utility.yul\":2962:2984   */\n      add\n        /* \"#utility.yul\":2931:2994   */\n      tag_25\n      jump\t// in\n    tag_66:\n        /* \"#utility.yul\":2921:2994   */\n      swap5\n      pop\n        /* \"#utility.yul\":2876:3004   */\n      pop\n        /* \"#utility.yul\":3043:3045   */\n      0x40\n        /* \"#utility.yul\":3069:3133   */\n      tag_67\n        /* \"#utility.yul\":3125:3132   */\n      dup9\n        /* \"#utility.yul\":3116:3122   */\n      dup3\n        /* \"#utility.yul\":3105:3114   */\n      dup10\n        /* \"#utility.yul\":3101:3123   */\n      add\n        /* \"#utility.yul\":3069:3133   */\n      tag_27\n      jump\t// in\n    tag_67:\n        /* \"#utility.yul\":3059:3133   */\n      swap4\n      pop\n        /* \"#utility.yul\":3014:3143   */\n      pop\n        /* \"#utility.yul\":3182:3184   */\n      0x60\n        /* \"#utility.yul\":3208:3272   */\n      tag_68\n        /* \"#utility.yul\":3264:3271   */\n      dup9\n        /* \"#utility.yul\":3255:3261   */\n      dup3\n        /* \"#utility.yul\":3244:3253   */\n      dup10\n        /* \"#utility.yul\":3240:3262   */\n      add\n        /* \"#utility.yul\":3208:3272   */\n      tag_27\n      jump\t// in\n    tag_68:\n        /* \"#utility.yul\":3198:3272   */\n      swap3\n      pop\n        /* \"#utility.yul\":3153:3282   */\n      pop\n        /* \"#utility.yul\":3321:3324   */\n      0x80\n        /* \"#utility.yul\":3348:3411   */\n      tag_69\n        /* \"#utility.yul\":3403:3410   */\n      dup9\n        /* \"#utility.yul\":3394:3400   */\n      dup3\n        /* \"#utility.yul\":3383:3392   */\n      dup10\n        /* \"#utility.yul\":3379:3401   */\n      add\n        /* \"#utility.yul\":3348:3411   */\n      tag_23\n      jump\t// in\n    tag_69:\n        /* \"#utility.yul\":3338:3411   */\n      swap2\n      pop\n        /* \"#utility.yul\":3292:3421   */\n      pop\n        /* \"#utility.yul\":2457:3428   */\n      swap3\n      swap6\n      pop\n      swap3\n      swap6\n      swap1\n      swap4\n      pop\n      jump\t// out\n\n    auxdata: 0xa2646970667358221220432409f9ca4937ef9d6ee056022a79521a81775d29d962dec3f408c26de43d9864736f6c63430008180033\n}\n",
				"bytecode": {
					"linkReferences": {},
					"object": "608060405234801561000f575f80fd5b5073694aa1769357215de4fac081bf1f309adc3253065f806101000a81548173ffffffffffffffffffffffffffffffffffffffff021916908373ffffffffffffffffffffffffffffffffffffffff1602179055506102d0806100705f395ff3fe608060405234801561000f575f80fd5b5060043610610029575f3560e01c80635abd0f641461002d575b5f80fd5b61003561004f565b604051610046959493929190610150565b60405180910390f35b5f805f805f805f9054906101000a900473ffffffffffffffffffffffffffffffffffffffff1673ffffffffffffffffffffffffffffffffffffffff1663feaf968c6040518163ffffffff1660e01b815260040160a060405180830381865afa1580156100bd573d5f803e3d5ffd5b505050506040513d601f19601f820116820180604052508101906100e19190610223565b80955081965082975083985084995050505050509091929394565b5f69ffffffffffffffffffff82169050919050565b61011a816100fc565b82525050565b5f819050919050565b61013281610120565b82525050565b5f819050919050565b61014a81610138565b82525050565b5f60a0820190506101635f830188610111565b6101706020830187610129565b61017d6040830186610141565b61018a6060830185610141565b6101976080830184610111565b9695505050505050565b5f80fd5b6101ae816100fc565b81146101b8575f80fd5b50565b5f815190506101c9816101a5565b92915050565b6101d881610120565b81146101e2575f80fd5b50565b5f815190506101f3816101cf565b92915050565b61020281610138565b811461020c575f80fd5b50565b5f8151905061021d816101f9565b92915050565b5f805f805f60a0868803121561023c5761023b6101a1565b5b5f610249888289016101bb565b955050602061025a888289016101e5565b945050604061026b8882890161020f565b935050606061027c8882890161020f565b925050608061028d888289016101bb565b915050929550929590935056fea2646970667358221220432409f9ca4937ef9d6ee056022a79521a81775d29d962dec3f408c26de43d9864736f6c63430008180033",
					"opcodes": "PUSH1 0x80 PUSH1 0x40 MSTORE CALLVALUE DUP1 ISZERO PUSH2 0xF JUMPI PUSH0 DUP1 REVERT JUMPDEST POP PUSH20 0x694AA1769357215DE4FAC081BF1F309ADC325306 PUSH0 DUP1 PUSH2 0x100 EXP DUP2 SLOAD DUP2 PUSH20 0xFFFFFFFFFFFFFFFFFFFFFFFFFFFFFFFFFFFFFFFF MUL NOT AND SWAP1 DUP4 PUSH20 0xFFFFFFFFFFFFFFFFFFFFFFFFFFFFFFFFFFFFFFFF AND MUL OR SWAP1 SSTORE POP PUSH2 0x2D0 DUP1 PUSH2 0x70 PUSH0 CODECOPY PUSH0 RETURN INVALID PUSH1 0x80 PUSH1 0x40 MSTORE CALLVALUE DUP1 ISZERO PUSH2 0xF JUMPI PUSH0 DUP1 REVERT JUMPDEST POP PUSH1 0x4 CALLDATASIZE LT PUSH2 0x29 JUMPI PUSH0 CALLDATALOAD PUSH1 0xE0 SHR DUP1 PUSH4 0x5ABD0F64 EQ PUSH2 0x2D JUMPI JUMPDEST PUSH0 DUP1 REVERT JUMPDEST PUSH2 0x35 PUSH2 0x4F JUMP JUMPDEST PUSH1 0x40 MLOAD PUSH2 0x46 SWAP6 SWAP5 SWAP4 SWAP3 SWAP2 SWAP1 PUSH2 0x150 JUMP JUMPDEST PUSH1 0x40 MLOAD DUP1 SWAP2 SUB SWAP1 RETURN JUMPDEST PUSH0 DUP1 PUSH0 DUP1 PUSH0 DUP1 PUSH0 SWAP1 SLOAD SWAP1 PUSH2 0x100 EXP SWAP1 DIV PUSH20 0xFFFFFFFFFFFFFFFFFFFFFFFFFFFFFFFFFFFFFFFF AND PUSH20 0xFFFFFFFFFFFFFFFFFFFFFFFFFFFFFFFFFFFFFFFF AND PUSH4 0xFEAF968C PUSH1 0x40 MLOAD DUP2 PUSH4 0xFFFFFFFF AND PUSH1 0xE0 SHL DUP2 MSTORE PUSH1 0x4 ADD PUSH1 0xA0 PUSH1 0x40 MLOAD DUP1 DUP4 SUB DUP2 DUP7 GAS STATICCALL ISZERO DUP1 ISZERO PUSH2 0xBD JUMPI RETURNDATASIZE PUSH0 DUP1 RETURNDATACOPY RETURNDATASIZE PUSH0 REVERT JUMPDEST POP POP POP POP PUSH1 0x40 MLOAD RETURNDATASIZE PUSH1 0x1F NOT PUSH1 0x1F DUP3 ADD AND DUP3 ADD DUP1 PUSH1 0x40 MSTORE POP DUP2 ADD SWAP1 PUSH2 0xE1 SWAP2 SWAP1 PUSH2 0x223 JUMP JUMPDEST DUP1 SWAP6 POP DUP2 SWAP7 POP DUP3 SWAP8 POP DUP4 SWAP9 POP DUP5 SWAP10 POP POP POP POP POP POP SWAP1 SWAP2 SWAP3 SWAP4 SWAP5 JUMP JUMPDEST PUSH0 PUSH10 0xFFFFFFFFFFFFFFFFFFFF DUP3 AND SWAP1 POP SWAP2 SWAP1 POP JUMP JUMPDEST PUSH2 0x11A DUP2 PUSH2 0xFC JUMP JUMPDEST DUP3 MSTORE POP POP JUMP JUMPDEST PUSH0 DUP2 SWAP1 POP SWAP2 SWAP1 POP JUMP JUMPDEST PUSH2 0x132 DUP2 PUSH2 0x120 JUMP JUMPDEST DUP3 MSTORE POP POP JUMP JUMPDEST PUSH0 DUP2 SWAP1 POP SWAP2 SWAP1 POP JUMP JUMPDEST PUSH2 0x14A DUP2 PUSH2 0x138 JUMP JUMPDEST DUP3 MSTORE POP POP JUMP JUMPDEST PUSH0 PUSH1 0xA0 DUP3 ADD SWAP1 POP PUSH2 0x163 PUSH0 DUP4 ADD DUP9 PUSH2 0x111 JUMP JUMPDEST PUSH2 0x170 PUSH1 0x20 DUP4 ADD DUP8 PUSH2 0x129 JUMP JUMPDEST PUSH2 0x17D PUSH1 0x40 DUP4 ADD DUP7 PUSH2 0x141 JUMP JUMPDEST PUSH2 0x18A PUSH1 0x60 DUP4 ADD DUP6 PUSH2 0x141 JUMP JUMPDEST PUSH2 0x197 PUSH1 0x80 DUP4 ADD DUP5 PUSH2 0x111 JUMP JUMPDEST SWAP7 SWAP6 POP POP POP POP POP POP JUMP JUMPDEST PUSH0 DUP1 REVERT JUMPDEST PUSH2 0x1AE DUP2 PUSH2 0xFC JUMP JUMPDEST DUP2 EQ PUSH2 0x1B8 JUMPI PUSH0 DUP1 REVERT JUMPDEST POP JUMP JUMPDEST PUSH0 DUP2 MLOAD SWAP1 POP PUSH2 0x1C9 DUP2 PUSH2 0x1A5 JUMP JUMPDEST SWAP3 SWAP2 POP POP JUMP JUMPDEST PUSH2 0x1D8 DUP2 PUSH2 0x120 JUMP JUMPDEST DUP2 EQ PUSH2 0x1E2 JUMPI PUSH0 DUP1 REVERT JUMPDEST POP JUMP JUMPDEST PUSH0 DUP2 MLOAD SWAP1 POP PUSH2 0x1F3 DUP2 PUSH2 0x1CF JUMP JUMPDEST SWAP3 SWAP2 POP POP JUMP JUMPDEST PUSH2 0x202 DUP2 PUSH2 0x138 JUMP JUMPDEST DUP2 EQ PUSH2 0x20C JUMPI PUSH0 DUP1 REVERT JUMPDEST POP JUMP JUMPDEST PUSH0 DUP2 MLOAD SWAP1 POP PUSH2 0x21D DUP2 PUSH2 0x1F9 JUMP JUMPDEST SWAP3 SWAP2 POP POP JUMP JUMPDEST PUSH0 DUP1 PUSH0 DUP1 PUSH0 PUSH1 0xA0 DUP7 DUP9 SUB SLT ISZERO PUSH2 0x23C JUMPI PUSH2 0x23B PUSH2 0x1A1 JUMP JUMPDEST JUMPDEST PUSH0 PUSH2 0x249 DUP9 DUP3 DUP10 ADD PUSH2 0x1BB JUMP JUMPDEST SWAP6 POP POP PUSH1 0x20 PUSH2 0x25A DUP9 DUP3 DUP10 ADD PUSH2 0x1E5 JUMP JUMPDEST SWAP5 POP POP PUSH1 0x40 PUSH2 0x26B DUP9 DUP3 DUP10 ADD PUSH2 0x20F JUMP JUMPDEST SWAP4 POP POP PUSH1 0x60 PUSH2 0x27C DUP9 DUP3 DUP10 ADD PUSH2 0x20F JUMP JUMPDEST SWAP3 POP POP PUSH1 0x80 PUSH2 0x28D DUP9 DUP3 DUP10 ADD PUSH2 0x1BB JUMP JUMPDEST SWAP2 POP POP SWAP3 SWAP6 POP SWAP3 SWAP6 SWAP1 SWAP4 POP JUMP INVALID LOG2 PUSH5 0x6970667358 0x22 SLT KECCAK256 NUMBER 0x24 MULMOD 0xF9 0xCA BLOBHASH CALLDATACOPY 0xEF SWAP14 PUSH15 0xE056022A79521A81775D29D962DEC3 DELEGATECALL ADDMOD 0xC2 PUSH14 0xE43D9864736F6C63430008180033 "
				},
				"gasEstimates": {
					"creation": {
						"codeDepositCost": "144000",
						"executionCost": "24454",
						"totalCost": "168454"
					},
					"external": {
						"getLatestPriceData()": "infinite"
					}
				},
				"methodIdentifiers": {
					"getLatestPriceData()": "5abd0f64"
				}
			},
			"storageLayout": {
				"storage": [
					{
						"astId": 52,
						"contract": "RemixFundMe/ChainLinkPriceFeed.sol:PriceConsumer",
						"label": "priceFeed",
						"offset": 0,
						"slot": "0",
						"type": "t_contract(AggregatorV3Interface)45"
					}
				],
				"types": {
					"t_contract(AggregatorV3Interface)45": {
						"encoding": "inplace",
						"label": "contract AggregatorV3Interface",
						"numberOfBytes": "20"
					}
				}
			},
			"userdoc": {
				"kind": "user",
				"methods": {},
				"version": 1
			}
		}
	}
}