{
	"RemixFundMe/FundMe.sol": {
		"FundMe": {
			"abi": [
				{
					"inputs": [],
					"stateMutability": "nonpayable",
					"type": "constructor"
				},
				{
					"inputs": [],
					"name": "MIN_USD",
					"outputs": [
						{
							"internalType": "uint256",
							"name": "",
							"type": "uint256"
						}
					],
					"stateMutability": "view",
					"type": "function"
				},
				{
					"inputs": [],
					"name": "Userwithdraw",
					"outputs": [],
					"stateMutability": "nonpayable",
					"type": "function"
				},
				{
					"inputs": [],
					"name": "fund",
					"outputs": [
						{
							"internalType": "bool",
							"name": "",
							"type": "bool"
						}
					],
					"stateMutability": "payable",
					"type": "function"
				},
				{
					"inputs": [
						{
							"internalType": "uint256",
							"name": "",
							"type": "uint256"
						}
					],
					"name": "funders",
					"outputs": [
						{
							"internalType": "address",
							"name": "",
							"type": "address"
						}
					],
					"stateMutability": "view",
					"type": "function"
				},
				{
					"inputs": [],
					"name": "owner",
					"outputs": [
						{
							"internalType": "address",
							"name": "",
							"type": "address"
						}
					],
					"stateMutability": "view",
					"type": "function"
				},
				{
					"inputs": [],
					"name": "setWithdrawal",
					"outputs": [
						{
							"internalType": "bool",
							"name": "",
							"type": "bool"
						}
					],
					"stateMutability": "view",
					"type": "function"
				},
				{
					"inputs": [],
					"name": "setWithdrawalFunc",
					"outputs": [],
					"stateMutability": "nonpayable",
					"type": "function"
				},
				{
					"inputs": [
						{
							"internalType": "address",
							"name": "",
							"type": "address"
						}
					],
					"name": "user",
					"outputs": [
						{
							"internalType": "uint256",
							"name": "amount",
							"type": "uint256"
						},
						{
							"internalType": "uint256",
							"name": "dob",
							"type": "uint256"
						}
					],
					"stateMutability": "view",
					"type": "function"
				}
			],
			"devdoc": {
				"kind": "dev",
				"methods": {},
				"version": 1
			},
			"evm": {
				"assembly": "    /* \"RemixFundMe/FundMe.sol\":111:1437  contract FundMe {... */\n  mstore(0x40, 0x80)\n    /* \"RemixFundMe/FundMe.sol\":418:467  constructor() {... */\n  callvalue\n  dup1\n  iszero\n  tag_1\n  jumpi\n  0x00\n  dup1\n  revert\ntag_1:\n  pop\n    /* \"RemixFundMe/FundMe.sol\":450:460  msg.sender */\n  caller\n    /* \"RemixFundMe/FundMe.sol\":442:447  owner */\n  0x00\n  dup1\n    /* \"RemixFundMe/FundMe.sol\":442:460  owner = msg.sender */\n  0x0100\n  exp\n  dup2\n  sload\n  dup2\n  0xffffffffffffffffffffffffffffffffffffffff\n  mul\n  not\n  and\n  swap1\n  dup4\n  0xffffffffffffffffffffffffffffffffffffffff\n  and\n  mul\n  or\n  swap1\n  sstore\n  pop\n    /* \"RemixFundMe/FundMe.sol\":111:1437  contract FundMe {... */\n  dataSize(sub_0)\n  dup1\n  dataOffset(sub_0)\n  0x00\n  codecopy\n  0x00\n  return\nstop\n\nsub_0: assembly {\n        /* \"RemixFundMe/FundMe.sol\":111:1437  contract FundMe {... */\n      mstore(0x40, 0x80)\n      jumpi(tag_1, lt(calldatasize, 0x04))\n      shr(0xe0, calldataload(0x00))\n      dup1\n      0x8da5cb5b\n      gt\n      tag_10\n      jumpi\n      dup1\n      0x8da5cb5b\n      eq\n      tag_6\n      jumpi\n      dup1\n      0xb60d4288\n      eq\n      tag_7\n      jumpi\n      dup1\n      0xb931e616\n      eq\n      tag_8\n      jumpi\n      dup1\n      0xdc0d3dff\n      eq\n      tag_9\n      jumpi\n      jump(tag_1)\n    tag_10:\n      dup1\n      0x213dbea2\n      eq\n      tag_2\n      jumpi\n      dup1\n      0x447d6f24\n      eq\n      tag_3\n      jumpi\n      dup1\n      0x81e7e20e\n      eq\n      tag_4\n      jumpi\n      dup1\n      0x88bb5396\n      eq\n      tag_5\n      jumpi\n    tag_1:\n      0x00\n      dup1\n      revert\n        /* \"RemixFundMe/FundMe.sol\":171:209  uint256 public constant MIN_USD = 5e18 */\n    tag_2:\n      callvalue\n      dup1\n      iszero\n      tag_11\n      jumpi\n      0x00\n      dup1\n      revert\n    tag_11:\n      pop\n      tag_12\n      tag_13\n      jump\t// in\n    tag_12:\n      mload(0x40)\n      tag_14\n      swap2\n      swap1\n      tag_15\n      jump\t// in\n    tag_14:\n      mload(0x40)\n      dup1\n      swap2\n      sub\n      swap1\n      return\n        /* \"RemixFundMe/FundMe.sol\":974:1057  function setWithdrawalFunc() public onlyOwner {... */\n    tag_3:\n      callvalue\n      dup1\n      iszero\n      tag_16\n      jumpi\n      0x00\n      dup1\n      revert\n    tag_16:\n      pop\n      tag_17\n      tag_18\n      jump\t// in\n    tag_17:\n      stop\n        /* \"RemixFundMe/FundMe.sol\":374:411  mapping(address => Users) public user */\n    tag_4:\n      callvalue\n      dup1\n      iszero\n      tag_19\n      jumpi\n      0x00\n      dup1\n      revert\n    tag_19:\n      pop\n      tag_20\n      0x04\n      dup1\n      calldatasize\n      sub\n      dup2\n      add\n      swap1\n      tag_21\n      swap2\n      swap1\n      tag_22\n      jump\t// in\n    tag_21:\n      tag_23\n      jump\t// in\n    tag_20:\n      mload(0x40)\n      tag_24\n      swap3\n      swap2\n      swap1\n      tag_25\n      jump\t// in\n    tag_24:\n      mload(0x40)\n      dup1\n      swap2\n      sub\n      swap1\n      return\n        /* \"RemixFundMe/FundMe.sol\":1063:1435  function Userwithdraw() public {... */\n    tag_5:\n      callvalue\n      dup1\n      iszero\n      tag_26\n      jumpi\n      0x00\n      dup1\n      revert\n    tag_26:\n      pop\n      tag_27\n      tag_28\n      jump\t// in\n    tag_27:\n      stop\n        /* \"RemixFundMe/FundMe.sol\":215:235  address public owner */\n    tag_6:\n      callvalue\n      dup1\n      iszero\n      tag_29\n      jumpi\n      0x00\n      dup1\n      revert\n    tag_29:\n      pop\n      tag_30\n      tag_31\n      jump\t// in\n    tag_30:\n      mload(0x40)\n      tag_32\n      swap2\n      swap1\n      tag_33\n      jump\t// in\n    tag_32:\n      mload(0x40)\n      dup1\n      swap2\n      sub\n      swap1\n      return\n        /* \"RemixFundMe/FundMe.sol\":473:863  function fund() public payable returns (bool) {... */\n    tag_7:\n      tag_34\n      tag_35\n      jump\t// in\n    tag_34:\n      mload(0x40)\n      tag_36\n      swap2\n      swap1\n      tag_37\n      jump\t// in\n    tag_36:\n      mload(0x40)\n      dup1\n      swap2\n      sub\n      swap1\n      return\n        /* \"RemixFundMe/FundMe.sol\":241:266  bool public setWithdrawal */\n    tag_8:\n      callvalue\n      dup1\n      iszero\n      tag_38\n      jumpi\n      0x00\n      dup1\n      revert\n    tag_38:\n      pop\n      tag_39\n      tag_40\n      jump\t// in\n    tag_39:\n      mload(0x40)\n      tag_41\n      swap2\n      swap1\n      tag_37\n      jump\t// in\n    tag_41:\n      mload(0x40)\n      dup1\n      swap2\n      sub\n      swap1\n      return\n        /* \"RemixFundMe/FundMe.sol\":343:367  address[] public funders */\n    tag_9:\n      callvalue\n      dup1\n      iszero\n      tag_42\n      jumpi\n      0x00\n      dup1\n      revert\n    tag_42:\n      pop\n      tag_43\n      0x04\n      dup1\n      calldatasize\n      sub\n      dup2\n      add\n      swap1\n      tag_44\n      swap2\n      swap1\n      tag_45\n      jump\t// in\n    tag_44:\n      tag_46\n      jump\t// in\n    tag_43:\n      mload(0x40)\n      tag_47\n      swap2\n      swap1\n      tag_33\n      jump\t// in\n    tag_47:\n      mload(0x40)\n      dup1\n      swap2\n      sub\n      swap1\n      return\n        /* \"RemixFundMe/FundMe.sol\":171:209  uint256 public constant MIN_USD = 5e18 */\n    tag_13:\n        /* \"RemixFundMe/FundMe.sol\":205:209  5e18 */\n      0x4563918244f40000\n        /* \"RemixFundMe/FundMe.sol\":171:209  uint256 public constant MIN_USD = 5e18 */\n      dup2\n      jump\t// out\n        /* \"RemixFundMe/FundMe.sol\":974:1057  function setWithdrawalFunc() public onlyOwner {... */\n    tag_18:\n        /* \"RemixFundMe/FundMe.sol\":922:927  owner */\n      0x00\n      dup1\n      sload\n      swap1\n      0x0100\n      exp\n      swap1\n      div\n      0xffffffffffffffffffffffffffffffffffffffff\n      and\n        /* \"RemixFundMe/FundMe.sol\":908:927  msg.sender == owner */\n      0xffffffffffffffffffffffffffffffffffffffff\n      and\n        /* \"RemixFundMe/FundMe.sol\":908:918  msg.sender */\n      caller\n        /* \"RemixFundMe/FundMe.sol\":908:927  msg.sender == owner */\n      0xffffffffffffffffffffffffffffffffffffffff\n      and\n      eq\n        /* \"RemixFundMe/FundMe.sol\":900:950  require(msg.sender == owner, \"Onlyowner can call\") */\n      tag_49\n      jumpi\n      mload(0x40)\n      0x08c379a000000000000000000000000000000000000000000000000000000000\n      dup2\n      mstore\n      0x04\n      add\n      tag_50\n      swap1\n      tag_51\n      jump\t// in\n    tag_50:\n      mload(0x40)\n      dup1\n      swap2\n      sub\n      swap1\n      revert\n    tag_49:\n        /* \"RemixFundMe/FundMe.sol\":1046:1050  true */\n      0x01\n        /* \"RemixFundMe/FundMe.sol\":1030:1043  setWithdrawal */\n      0x00\n      0x14\n        /* \"RemixFundMe/FundMe.sol\":1030:1050  setWithdrawal = true */\n      0x0100\n      exp\n      dup2\n      sload\n      dup2\n      0xff\n      mul\n      not\n      and\n      swap1\n      dup4\n      iszero\n      iszero\n      mul\n      or\n      swap1\n      sstore\n      pop\n        /* \"RemixFundMe/FundMe.sol\":974:1057  function setWithdrawalFunc() public onlyOwner {... */\n      jump\t// out\n        /* \"RemixFundMe/FundMe.sol\":374:411  mapping(address => Users) public user */\n    tag_23:\n      mstore(0x20, 0x02)\n      dup1\n      0x00\n      mstore\n      keccak256(0x00, 0x40)\n      0x00\n      swap2\n      pop\n      swap1\n      pop\n      dup1\n      0x00\n      add\n      sload\n      swap1\n      dup1\n      0x01\n      add\n      sload\n      swap1\n      pop\n      dup3\n      jump\t// out\n        /* \"RemixFundMe/FundMe.sol\":1063:1435  function Userwithdraw() public {... */\n    tag_28:\n        /* \"RemixFundMe/FundMe.sol\":1112:1125  setWithdrawal */\n      0x00\n      0x14\n      swap1\n      sload\n      swap1\n      0x0100\n      exp\n      swap1\n      div\n      0xff\n      and\n        /* \"RemixFundMe/FundMe.sol\":1104:1154  require(setWithdrawal, \"Withdrawal not available\") */\n      tag_54\n      jumpi\n      mload(0x40)\n      0x08c379a000000000000000000000000000000000000000000000000000000000\n      dup2\n      mstore\n      0x04\n      add\n      tag_55\n      swap1\n      tag_56\n      jump\t// in\n    tag_55:\n      mload(0x40)\n      dup1\n      swap2\n      sub\n      swap1\n      revert\n    tag_54:\n        /* \"RemixFundMe/FundMe.sol\":1198:1199  0 */\n      0x00\n        /* \"RemixFundMe/FundMe.sol\":1172:1176  user */\n      0x02\n        /* \"RemixFundMe/FundMe.sol\":1172:1188  user[msg.sender] */\n      0x00\n        /* \"RemixFundMe/FundMe.sol\":1177:1187  msg.sender */\n      caller\n        /* \"RemixFundMe/FundMe.sol\":1172:1188  user[msg.sender] */\n      0xffffffffffffffffffffffffffffffffffffffff\n      and\n      0xffffffffffffffffffffffffffffffffffffffff\n      and\n      dup2\n      mstore\n      0x20\n      add\n      swap1\n      dup2\n      mstore\n      0x20\n      add\n      0x00\n      keccak256\n        /* \"RemixFundMe/FundMe.sol\":1172:1195  user[msg.sender].amount */\n      0x00\n      add\n      sload\n        /* \"RemixFundMe/FundMe.sol\":1172:1199  user[msg.sender].amount > 0 */\n      gt\n        /* \"RemixFundMe/FundMe.sol\":1164:1221  require(user[msg.sender].amount > 0, \"User doesnt exist\") */\n      tag_57\n      jumpi\n      mload(0x40)\n      0x08c379a000000000000000000000000000000000000000000000000000000000\n      dup2\n      mstore\n      0x04\n      add\n      tag_58\n      swap1\n      tag_59\n      jump\t// in\n    tag_58:\n      mload(0x40)\n      dup1\n      swap2\n      sub\n      swap1\n      revert\n    tag_57:\n        /* \"RemixFundMe/FundMe.sol\":1233:1249  bool callSuccess */\n      0x00\n        /* \"RemixFundMe/FundMe.sol\":1263:1273  msg.sender */\n      caller\n        /* \"RemixFundMe/FundMe.sol\":1255:1279  payable(msg.sender).call */\n      0xffffffffffffffffffffffffffffffffffffffff\n      and\n        /* \"RemixFundMe/FundMe.sol\":1300:1304  user */\n      0x02\n        /* \"RemixFundMe/FundMe.sol\":1300:1316  user[msg.sender] */\n      0x00\n        /* \"RemixFundMe/FundMe.sol\":1305:1315  msg.sender */\n      caller\n        /* \"RemixFundMe/FundMe.sol\":1300:1316  user[msg.sender] */\n      0xffffffffffffffffffffffffffffffffffffffff\n      and\n      0xffffffffffffffffffffffffffffffffffffffff\n      and\n      dup2\n      mstore\n      0x20\n      add\n      swap1\n      dup2\n      mstore\n      0x20\n      add\n      0x00\n      keccak256\n        /* \"RemixFundMe/FundMe.sol\":1300:1323  user[msg.sender].amount */\n      0x00\n      add\n      sload\n        /* \"RemixFundMe/FundMe.sol\":1255:1337  payable(msg.sender).call{... */\n      mload(0x40)\n      tag_60\n      swap1\n      tag_61\n      jump\t// in\n    tag_60:\n      0x00\n      mload(0x40)\n      dup1\n      dup4\n      sub\n      dup2\n      dup6\n      dup8\n      gas\n      call\n      swap3\n      pop\n      pop\n      pop\n      returndatasize\n      dup1\n      0x00\n      dup2\n      eq\n      tag_64\n      jumpi\n      mload(0x40)\n      swap2\n      pop\n      and(add(returndatasize, 0x3f), not(0x1f))\n      dup3\n      add\n      0x40\n      mstore\n      returndatasize\n      dup3\n      mstore\n      returndatasize\n      0x00\n      0x20\n      dup5\n      add\n      returndatacopy\n      jump(tag_63)\n    tag_64:\n      0x60\n      swap2\n      pop\n    tag_63:\n      pop\n        /* \"RemixFundMe/FundMe.sol\":1232:1337  (bool callSuccess, ) = payable(msg.sender).call{... */\n      pop\n      swap1\n      pop\n        /* \"RemixFundMe/FundMe.sol\":1374:1375  0 */\n      0x00\n        /* \"RemixFundMe/FundMe.sol\":1348:1352  user */\n      0x02\n        /* \"RemixFundMe/FundMe.sol\":1348:1364  user[msg.sender] */\n      0x00\n        /* \"RemixFundMe/FundMe.sol\":1353:1363  msg.sender */\n      caller\n        /* \"RemixFundMe/FundMe.sol\":1348:1364  user[msg.sender] */\n      0xffffffffffffffffffffffffffffffffffffffff\n      and\n      0xffffffffffffffffffffffffffffffffffffffff\n      and\n      dup2\n      mstore\n      0x20\n      add\n      swap1\n      dup2\n      mstore\n      0x20\n      add\n      0x00\n      keccak256\n        /* \"RemixFundMe/FundMe.sol\":1348:1371  user[msg.sender].amount */\n      0x00\n      add\n        /* \"RemixFundMe/FundMe.sol\":1348:1375  user[msg.sender].amount = 0 */\n      dup2\n      swap1\n      sstore\n      pop\n        /* \"RemixFundMe/FundMe.sol\":1394:1405  callSuccess */\n      dup1\n        /* \"RemixFundMe/FundMe.sol\":1386:1428  require(callSuccess, \"Failed transaction\") */\n      tag_65\n      jumpi\n      mload(0x40)\n      0x08c379a000000000000000000000000000000000000000000000000000000000\n      dup2\n      mstore\n      0x04\n      add\n      tag_66\n      swap1\n      tag_67\n      jump\t// in\n    tag_66:\n      mload(0x40)\n      dup1\n      swap2\n      sub\n      swap1\n      revert\n    tag_65:\n        /* \"RemixFundMe/FundMe.sol\":1094:1435  {... */\n      pop\n        /* \"RemixFundMe/FundMe.sol\":1063:1435  function Userwithdraw() public {... */\n      jump\t// out\n        /* \"RemixFundMe/FundMe.sol\":215:235  address public owner */\n    tag_31:\n      0x00\n      dup1\n      sload\n      swap1\n      0x0100\n      exp\n      swap1\n      div\n      0xffffffffffffffffffffffffffffffffffffffff\n      and\n      dup2\n      jump\t// out\n        /* \"RemixFundMe/FundMe.sol\":473:863  function fund() public payable returns (bool) {... */\n    tag_35:\n        /* \"RemixFundMe/FundMe.sol\":513:517  bool */\n      0x00\n        /* \"RemixFundMe/FundMe.sol\":673:698  Users storage currentUser */\n      dup1\n        /* \"RemixFundMe/FundMe.sol\":701:705  user */\n      0x02\n        /* \"RemixFundMe/FundMe.sol\":701:717  user[msg.sender] */\n      0x00\n        /* \"RemixFundMe/FundMe.sol\":706:716  msg.sender */\n      caller\n        /* \"RemixFundMe/FundMe.sol\":701:717  user[msg.sender] */\n      0xffffffffffffffffffffffffffffffffffffffff\n      and\n      0xffffffffffffffffffffffffffffffffffffffff\n      and\n      dup2\n      mstore\n      0x20\n      add\n      swap1\n      dup2\n      mstore\n      0x20\n      add\n      0x00\n      keccak256\n        /* \"RemixFundMe/FundMe.sol\":673:717  Users storage currentUser = user[msg.sender] */\n      swap1\n      pop\n        /* \"RemixFundMe/FundMe.sol\":749:758  msg.value */\n      callvalue\n        /* \"RemixFundMe/FundMe.sol\":727:738  currentUser */\n      dup2\n        /* \"RemixFundMe/FundMe.sol\":727:745  currentUser.amount */\n      0x00\n      add\n      0x00\n        /* \"RemixFundMe/FundMe.sol\":727:758  currentUser.amount += msg.value */\n      dup3\n      dup3\n      sload\n      tag_69\n      swap2\n      swap1\n      tag_70\n      jump\t// in\n    tag_69:\n      swap3\n      pop\n      pop\n      dup2\n      swap1\n      sstore\n      pop\n        /* \"RemixFundMe/FundMe.sol\":786:801  block.timestamp */\n      timestamp\n        /* \"RemixFundMe/FundMe.sol\":768:779  currentUser */\n      dup2\n        /* \"RemixFundMe/FundMe.sol\":768:783  currentUser.dob */\n      0x01\n      add\n        /* \"RemixFundMe/FundMe.sol\":768:801  currentUser.dob = block.timestamp */\n      dup2\n      swap1\n      sstore\n      pop\n        /* \"RemixFundMe/FundMe.sol\":811:818  funders */\n      0x01\n        /* \"RemixFundMe/FundMe.sol\":824:834  msg.sender */\n      caller\n        /* \"RemixFundMe/FundMe.sol\":811:835  funders.push(msg.sender) */\n      swap1\n      dup1\n      0x01\n      dup2\n      sload\n      add\n      dup1\n      dup3\n      sstore\n      dup1\n      swap2\n      pop\n      pop\n      0x01\n      swap1\n      sub\n      swap1\n      0x00\n      mstore\n      keccak256(0x00, 0x20)\n      add\n      0x00\n      swap1\n      swap2\n      swap1\n      swap2\n      swap1\n      swap2\n      0x0100\n      exp\n      dup2\n      sload\n      dup2\n      0xffffffffffffffffffffffffffffffffffffffff\n      mul\n      not\n      and\n      swap1\n      dup4\n      0xffffffffffffffffffffffffffffffffffffffff\n      and\n      mul\n      or\n      swap1\n      sstore\n      pop\n        /* \"RemixFundMe/FundMe.sol\":852:856  true */\n      0x01\n        /* \"RemixFundMe/FundMe.sol\":845:856  return true */\n      swap2\n      pop\n      pop\n        /* \"RemixFundMe/FundMe.sol\":473:863  function fund() public payable returns (bool) {... */\n      swap1\n      jump\t// out\n        /* \"RemixFundMe/FundMe.sol\":241:266  bool public setWithdrawal */\n    tag_40:\n      0x00\n      0x14\n      swap1\n      sload\n      swap1\n      0x0100\n      exp\n      swap1\n      div\n      0xff\n      and\n      dup2\n      jump\t// out\n        /* \"RemixFundMe/FundMe.sol\":343:367  address[] public funders */\n    tag_46:\n      0x01\n      dup2\n      dup2\n      sload\n      dup2\n      lt\n      tag_72\n      jumpi\n      0x00\n      dup1\n      revert\n    tag_72:\n      swap1\n      0x00\n      mstore\n      keccak256(0x00, 0x20)\n      add\n      0x00\n      swap2\n      pop\n      sload\n      swap1\n      0x0100\n      exp\n      swap1\n      div\n      0xffffffffffffffffffffffffffffffffffffffff\n      and\n      dup2\n      jump\t// out\n        /* \"#utility.yul\":7:84   */\n    tag_74:\n        /* \"#utility.yul\":44:51   */\n      0x00\n        /* \"#utility.yul\":73:78   */\n      dup2\n        /* \"#utility.yul\":62:78   */\n      swap1\n      pop\n        /* \"#utility.yul\":7:84   */\n      swap2\n      swap1\n      pop\n      jump\t// out\n        /* \"#utility.yul\":90:208   */\n    tag_75:\n        /* \"#utility.yul\":177:201   */\n      tag_104\n        /* \"#utility.yul\":195:200   */\n      dup2\n        /* \"#utility.yul\":177:201   */\n      tag_74\n      jump\t// in\n    tag_104:\n        /* \"#utility.yul\":172:175   */\n      dup3\n        /* \"#utility.yul\":165:202   */\n      mstore\n        /* \"#utility.yul\":90:208   */\n      pop\n      pop\n      jump\t// out\n        /* \"#utility.yul\":214:436   */\n    tag_15:\n        /* \"#utility.yul\":307:311   */\n      0x00\n        /* \"#utility.yul\":345:347   */\n      0x20\n        /* \"#utility.yul\":334:343   */\n      dup3\n        /* \"#utility.yul\":330:348   */\n      add\n        /* \"#utility.yul\":322:348   */\n      swap1\n      pop\n        /* \"#utility.yul\":358:429   */\n      tag_106\n        /* \"#utility.yul\":426:427   */\n      0x00\n        /* \"#utility.yul\":415:424   */\n      dup4\n        /* \"#utility.yul\":411:428   */\n      add\n        /* \"#utility.yul\":402:408   */\n      dup5\n        /* \"#utility.yul\":358:429   */\n      tag_75\n      jump\t// in\n    tag_106:\n        /* \"#utility.yul\":214:436   */\n      swap3\n      swap2\n      pop\n      pop\n      jump\t// out\n        /* \"#utility.yul\":523:640   */\n    tag_77:\n        /* \"#utility.yul\":632:633   */\n      0x00\n        /* \"#utility.yul\":629:630   */\n      dup1\n        /* \"#utility.yul\":622:634   */\n      revert\n        /* \"#utility.yul\":769:895   */\n    tag_79:\n        /* \"#utility.yul\":806:813   */\n      0x00\n        /* \"#utility.yul\":846:888   */\n      0xffffffffffffffffffffffffffffffffffffffff\n        /* \"#utility.yul\":839:844   */\n      dup3\n        /* \"#utility.yul\":835:889   */\n      and\n        /* \"#utility.yul\":824:889   */\n      swap1\n      pop\n        /* \"#utility.yul\":769:895   */\n      swap2\n      swap1\n      pop\n      jump\t// out\n        /* \"#utility.yul\":901:997   */\n    tag_80:\n        /* \"#utility.yul\":938:945   */\n      0x00\n        /* \"#utility.yul\":967:991   */\n      tag_112\n        /* \"#utility.yul\":985:990   */\n      dup3\n        /* \"#utility.yul\":967:991   */\n      tag_79\n      jump\t// in\n    tag_112:\n        /* \"#utility.yul\":956:991   */\n      swap1\n      pop\n        /* \"#utility.yul\":901:997   */\n      swap2\n      swap1\n      pop\n      jump\t// out\n        /* \"#utility.yul\":1003:1125   */\n    tag_81:\n        /* \"#utility.yul\":1076:1100   */\n      tag_114\n        /* \"#utility.yul\":1094:1099   */\n      dup2\n        /* \"#utility.yul\":1076:1100   */\n      tag_80\n      jump\t// in\n    tag_114:\n        /* \"#utility.yul\":1069:1074   */\n      dup2\n        /* \"#utility.yul\":1066:1101   */\n      eq\n        /* \"#utility.yul\":1056:1119   */\n      tag_115\n      jumpi\n        /* \"#utility.yul\":1115:1116   */\n      0x00\n        /* \"#utility.yul\":1112:1113   */\n      dup1\n        /* \"#utility.yul\":1105:1117   */\n      revert\n        /* \"#utility.yul\":1056:1119   */\n    tag_115:\n        /* \"#utility.yul\":1003:1125   */\n      pop\n      jump\t// out\n        /* \"#utility.yul\":1131:1270   */\n    tag_82:\n        /* \"#utility.yul\":1177:1182   */\n      0x00\n        /* \"#utility.yul\":1215:1221   */\n      dup2\n        /* \"#utility.yul\":1202:1222   */\n      calldataload\n        /* \"#utility.yul\":1193:1222   */\n      swap1\n      pop\n        /* \"#utility.yul\":1231:1264   */\n      tag_117\n        /* \"#utility.yul\":1258:1263   */\n      dup2\n        /* \"#utility.yul\":1231:1264   */\n      tag_81\n      jump\t// in\n    tag_117:\n        /* \"#utility.yul\":1131:1270   */\n      swap3\n      swap2\n      pop\n      pop\n      jump\t// out\n        /* \"#utility.yul\":1276:1605   */\n    tag_22:\n        /* \"#utility.yul\":1335:1341   */\n      0x00\n        /* \"#utility.yul\":1384:1386   */\n      0x20\n        /* \"#utility.yul\":1372:1381   */\n      dup3\n        /* \"#utility.yul\":1363:1370   */\n      dup5\n        /* \"#utility.yul\":1359:1382   */\n      sub\n        /* \"#utility.yul\":1355:1387   */\n      slt\n        /* \"#utility.yul\":1352:1471   */\n      iszero\n      tag_119\n      jumpi\n        /* \"#utility.yul\":1390:1469   */\n      tag_120\n      tag_77\n      jump\t// in\n    tag_120:\n        /* \"#utility.yul\":1352:1471   */\n    tag_119:\n        /* \"#utility.yul\":1510:1511   */\n      0x00\n        /* \"#utility.yul\":1535:1588   */\n      tag_121\n        /* \"#utility.yul\":1580:1587   */\n      dup5\n        /* \"#utility.yul\":1571:1577   */\n      dup3\n        /* \"#utility.yul\":1560:1569   */\n      dup6\n        /* \"#utility.yul\":1556:1578   */\n      add\n        /* \"#utility.yul\":1535:1588   */\n      tag_82\n      jump\t// in\n    tag_121:\n        /* \"#utility.yul\":1525:1588   */\n      swap2\n      pop\n        /* \"#utility.yul\":1481:1598   */\n      pop\n        /* \"#utility.yul\":1276:1605   */\n      swap3\n      swap2\n      pop\n      pop\n      jump\t// out\n        /* \"#utility.yul\":1611:1943   */\n    tag_25:\n        /* \"#utility.yul\":1732:1736   */\n      0x00\n        /* \"#utility.yul\":1770:1772   */\n      0x40\n        /* \"#utility.yul\":1759:1768   */\n      dup3\n        /* \"#utility.yul\":1755:1773   */\n      add\n        /* \"#utility.yul\":1747:1773   */\n      swap1\n      pop\n        /* \"#utility.yul\":1783:1854   */\n      tag_123\n        /* \"#utility.yul\":1851:1852   */\n      0x00\n        /* \"#utility.yul\":1840:1849   */\n      dup4\n        /* \"#utility.yul\":1836:1853   */\n      add\n        /* \"#utility.yul\":1827:1833   */\n      dup6\n        /* \"#utility.yul\":1783:1854   */\n      tag_75\n      jump\t// in\n    tag_123:\n        /* \"#utility.yul\":1864:1936   */\n      tag_124\n        /* \"#utility.yul\":1932:1934   */\n      0x20\n        /* \"#utility.yul\":1921:1930   */\n      dup4\n        /* \"#utility.yul\":1917:1935   */\n      add\n        /* \"#utility.yul\":1908:1914   */\n      dup5\n        /* \"#utility.yul\":1864:1936   */\n      tag_75\n      jump\t// in\n    tag_124:\n        /* \"#utility.yul\":1611:1943   */\n      swap4\n      swap3\n      pop\n      pop\n      pop\n      jump\t// out\n        /* \"#utility.yul\":1949:2067   */\n    tag_83:\n        /* \"#utility.yul\":2036:2060   */\n      tag_126\n        /* \"#utility.yul\":2054:2059   */\n      dup2\n        /* \"#utility.yul\":2036:2060   */\n      tag_80\n      jump\t// in\n    tag_126:\n        /* \"#utility.yul\":2031:2034   */\n      dup3\n        /* \"#utility.yul\":2024:2061   */\n      mstore\n        /* \"#utility.yul\":1949:2067   */\n      pop\n      pop\n      jump\t// out\n        /* \"#utility.yul\":2073:2295   */\n    tag_33:\n        /* \"#utility.yul\":2166:2170   */\n      0x00\n        /* \"#utility.yul\":2204:2206   */\n      0x20\n        /* \"#utility.yul\":2193:2202   */\n      dup3\n        /* \"#utility.yul\":2189:2207   */\n      add\n        /* \"#utility.yul\":2181:2207   */\n      swap1\n      pop\n        /* \"#utility.yul\":2217:2288   */\n      tag_128\n        /* \"#utility.yul\":2285:2286   */\n      0x00\n        /* \"#utility.yul\":2274:2283   */\n      dup4\n        /* \"#utility.yul\":2270:2287   */\n      add\n        /* \"#utility.yul\":2261:2267   */\n      dup5\n        /* \"#utility.yul\":2217:2288   */\n      tag_83\n      jump\t// in\n    tag_128:\n        /* \"#utility.yul\":2073:2295   */\n      swap3\n      swap2\n      pop\n      pop\n      jump\t// out\n        /* \"#utility.yul\":2301:2391   */\n    tag_84:\n        /* \"#utility.yul\":2335:2342   */\n      0x00\n        /* \"#utility.yul\":2378:2383   */\n      dup2\n        /* \"#utility.yul\":2371:2384   */\n      iszero\n        /* \"#utility.yul\":2364:2385   */\n      iszero\n        /* \"#utility.yul\":2353:2385   */\n      swap1\n      pop\n        /* \"#utility.yul\":2301:2391   */\n      swap2\n      swap1\n      pop\n      jump\t// out\n        /* \"#utility.yul\":2397:2506   */\n    tag_85:\n        /* \"#utility.yul\":2478:2499   */\n      tag_131\n        /* \"#utility.yul\":2493:2498   */\n      dup2\n        /* \"#utility.yul\":2478:2499   */\n      tag_84\n      jump\t// in\n    tag_131:\n        /* \"#utility.yul\":2473:2476   */\n      dup3\n        /* \"#utility.yul\":2466:2500   */\n      mstore\n        /* \"#utility.yul\":2397:2506   */\n      pop\n      pop\n      jump\t// out\n        /* \"#utility.yul\":2512:2722   */\n    tag_37:\n        /* \"#utility.yul\":2599:2603   */\n      0x00\n        /* \"#utility.yul\":2637:2639   */\n      0x20\n        /* \"#utility.yul\":2626:2635   */\n      dup3\n        /* \"#utility.yul\":2622:2640   */\n      add\n        /* \"#utility.yul\":2614:2640   */\n      swap1\n      pop\n        /* \"#utility.yul\":2650:2715   */\n      tag_133\n        /* \"#utility.yul\":2712:2713   */\n      0x00\n        /* \"#utility.yul\":2701:2710   */\n      dup4\n        /* \"#utility.yul\":2697:2714   */\n      add\n        /* \"#utility.yul\":2688:2694   */\n      dup5\n        /* \"#utility.yul\":2650:2715   */\n      tag_85\n      jump\t// in\n    tag_133:\n        /* \"#utility.yul\":2512:2722   */\n      swap3\n      swap2\n      pop\n      pop\n      jump\t// out\n        /* \"#utility.yul\":2728:2850   */\n    tag_86:\n        /* \"#utility.yul\":2801:2825   */\n      tag_135\n        /* \"#utility.yul\":2819:2824   */\n      dup2\n        /* \"#utility.yul\":2801:2825   */\n      tag_74\n      jump\t// in\n    tag_135:\n        /* \"#utility.yul\":2794:2799   */\n      dup2\n        /* \"#utility.yul\":2791:2826   */\n      eq\n        /* \"#utility.yul\":2781:2844   */\n      tag_136\n      jumpi\n        /* \"#utility.yul\":2840:2841   */\n      0x00\n        /* \"#utility.yul\":2837:2838   */\n      dup1\n        /* \"#utility.yul\":2830:2842   */\n      revert\n        /* \"#utility.yul\":2781:2844   */\n    tag_136:\n        /* \"#utility.yul\":2728:2850   */\n      pop\n      jump\t// out\n        /* \"#utility.yul\":2856:2995   */\n    tag_87:\n        /* \"#utility.yul\":2902:2907   */\n      0x00\n        /* \"#utility.yul\":2940:2946   */\n      dup2\n        /* \"#utility.yul\":2927:2947   */\n      calldataload\n        /* \"#utility.yul\":2918:2947   */\n      swap1\n      pop\n        /* \"#utility.yul\":2956:2989   */\n      tag_138\n        /* \"#utility.yul\":2983:2988   */\n      dup2\n        /* \"#utility.yul\":2956:2989   */\n      tag_86\n      jump\t// in\n    tag_138:\n        /* \"#utility.yul\":2856:2995   */\n      swap3\n      swap2\n      pop\n      pop\n      jump\t// out\n        /* \"#utility.yul\":3001:3330   */\n    tag_45:\n        /* \"#utility.yul\":3060:3066   */\n      0x00\n        /* \"#utility.yul\":3109:3111   */\n      0x20\n        /* \"#utility.yul\":3097:3106   */\n      dup3\n        /* \"#utility.yul\":3088:3095   */\n      dup5\n        /* \"#utility.yul\":3084:3107   */\n      sub\n        /* \"#utility.yul\":3080:3112   */\n      slt\n        /* \"#utility.yul\":3077:3196   */\n      iszero\n      tag_140\n      jumpi\n        /* \"#utility.yul\":3115:3194   */\n      tag_141\n      tag_77\n      jump\t// in\n    tag_141:\n        /* \"#utility.yul\":3077:3196   */\n    tag_140:\n        /* \"#utility.yul\":3235:3236   */\n      0x00\n        /* \"#utility.yul\":3260:3313   */\n      tag_142\n        /* \"#utility.yul\":3305:3312   */\n      dup5\n        /* \"#utility.yul\":3296:3302   */\n      dup3\n        /* \"#utility.yul\":3285:3294   */\n      dup6\n        /* \"#utility.yul\":3281:3303   */\n      add\n        /* \"#utility.yul\":3260:3313   */\n      tag_87\n      jump\t// in\n    tag_142:\n        /* \"#utility.yul\":3250:3313   */\n      swap2\n      pop\n        /* \"#utility.yul\":3206:3323   */\n      pop\n        /* \"#utility.yul\":3001:3330   */\n      swap3\n      swap2\n      pop\n      pop\n      jump\t// out\n        /* \"#utility.yul\":3336:3505   */\n    tag_88:\n        /* \"#utility.yul\":3420:3431   */\n      0x00\n        /* \"#utility.yul\":3454:3460   */\n      dup3\n        /* \"#utility.yul\":3449:3452   */\n      dup3\n        /* \"#utility.yul\":3442:3461   */\n      mstore\n        /* \"#utility.yul\":3494:3498   */\n      0x20\n        /* \"#utility.yul\":3489:3492   */\n      dup3\n        /* \"#utility.yul\":3485:3499   */\n      add\n        /* \"#utility.yul\":3470:3499   */\n      swap1\n      pop\n        /* \"#utility.yul\":3336:3505   */\n      swap3\n      swap2\n      pop\n      pop\n      jump\t// out\n        /* \"#utility.yul\":3511:3679   */\n    tag_89:\n        /* \"#utility.yul\":3651:3671   */\n      0x4f6e6c796f776e65722063616e2063616c6c0000000000000000000000000000\n        /* \"#utility.yul\":3647:3648   */\n      0x00\n        /* \"#utility.yul\":3639:3645   */\n      dup3\n        /* \"#utility.yul\":3635:3649   */\n      add\n        /* \"#utility.yul\":3628:3672   */\n      mstore\n        /* \"#utility.yul\":3511:3679   */\n      pop\n      jump\t// out\n        /* \"#utility.yul\":3685:4051   */\n    tag_90:\n        /* \"#utility.yul\":3827:3830   */\n      0x00\n        /* \"#utility.yul\":3848:3915   */\n      tag_146\n        /* \"#utility.yul\":3912:3914   */\n      0x12\n        /* \"#utility.yul\":3907:3910   */\n      dup4\n        /* \"#utility.yul\":3848:3915   */\n      tag_88\n      jump\t// in\n    tag_146:\n        /* \"#utility.yul\":3841:3915   */\n      swap2\n      pop\n        /* \"#utility.yul\":3924:4017   */\n      tag_147\n        /* \"#utility.yul\":4013:4016   */\n      dup3\n        /* \"#utility.yul\":3924:4017   */\n      tag_89\n      jump\t// in\n    tag_147:\n        /* \"#utility.yul\":4042:4044   */\n      0x20\n        /* \"#utility.yul\":4037:4040   */\n      dup3\n        /* \"#utility.yul\":4033:4045   */\n      add\n        /* \"#utility.yul\":4026:4045   */\n      swap1\n      pop\n        /* \"#utility.yul\":3685:4051   */\n      swap2\n      swap1\n      pop\n      jump\t// out\n        /* \"#utility.yul\":4057:4476   */\n    tag_51:\n        /* \"#utility.yul\":4223:4227   */\n      0x00\n        /* \"#utility.yul\":4261:4263   */\n      0x20\n        /* \"#utility.yul\":4250:4259   */\n      dup3\n        /* \"#utility.yul\":4246:4264   */\n      add\n        /* \"#utility.yul\":4238:4264   */\n      swap1\n      pop\n        /* \"#utility.yul\":4310:4319   */\n      dup2\n        /* \"#utility.yul\":4304:4308   */\n      dup2\n        /* \"#utility.yul\":4300:4320   */\n      sub\n        /* \"#utility.yul\":4296:4297   */\n      0x00\n        /* \"#utility.yul\":4285:4294   */\n      dup4\n        /* \"#utility.yul\":4281:4298   */\n      add\n        /* \"#utility.yul\":4274:4321   */\n      mstore\n        /* \"#utility.yul\":4338:4469   */\n      tag_149\n        /* \"#utility.yul\":4464:4468   */\n      dup2\n        /* \"#utility.yul\":4338:4469   */\n      tag_90\n      jump\t// in\n    tag_149:\n        /* \"#utility.yul\":4330:4469   */\n      swap1\n      pop\n        /* \"#utility.yul\":4057:4476   */\n      swap2\n      swap1\n      pop\n      jump\t// out\n        /* \"#utility.yul\":4482:4656   */\n    tag_91:\n        /* \"#utility.yul\":4622:4648   */\n      0x5769746864726177616c206e6f7420617661696c61626c650000000000000000\n        /* \"#utility.yul\":4618:4619   */\n      0x00\n        /* \"#utility.yul\":4610:4616   */\n      dup3\n        /* \"#utility.yul\":4606:4620   */\n      add\n        /* \"#utility.yul\":4599:4649   */\n      mstore\n        /* \"#utility.yul\":4482:4656   */\n      pop\n      jump\t// out\n        /* \"#utility.yul\":4662:5028   */\n    tag_92:\n        /* \"#utility.yul\":4804:4807   */\n      0x00\n        /* \"#utility.yul\":4825:4892   */\n      tag_152\n        /* \"#utility.yul\":4889:4891   */\n      0x18\n        /* \"#utility.yul\":4884:4887   */\n      dup4\n        /* \"#utility.yul\":4825:4892   */\n      tag_88\n      jump\t// in\n    tag_152:\n        /* \"#utility.yul\":4818:4892   */\n      swap2\n      pop\n        /* \"#utility.yul\":4901:4994   */\n      tag_153\n        /* \"#utility.yul\":4990:4993   */\n      dup3\n        /* \"#utility.yul\":4901:4994   */\n      tag_91\n      jump\t// in\n    tag_153:\n        /* \"#utility.yul\":5019:5021   */\n      0x20\n        /* \"#utility.yul\":5014:5017   */\n      dup3\n        /* \"#utility.yul\":5010:5022   */\n      add\n        /* \"#utility.yul\":5003:5022   */\n      swap1\n      pop\n        /* \"#utility.yul\":4662:5028   */\n      swap2\n      swap1\n      pop\n      jump\t// out\n        /* \"#utility.yul\":5034:5453   */\n    tag_56:\n        /* \"#utility.yul\":5200:5204   */\n      0x00\n        /* \"#utility.yul\":5238:5240   */\n      0x20\n        /* \"#utility.yul\":5227:5236   */\n      dup3\n        /* \"#utility.yul\":5223:5241   */\n      add\n        /* \"#utility.yul\":5215:5241   */\n      swap1\n      pop\n        /* \"#utility.yul\":5287:5296   */\n      dup2\n        /* \"#utility.yul\":5281:5285   */\n      dup2\n        /* \"#utility.yul\":5277:5297   */\n      sub\n        /* \"#utility.yul\":5273:5274   */\n      0x00\n        /* \"#utility.yul\":5262:5271   */\n      dup4\n        /* \"#utility.yul\":5258:5275   */\n      add\n        /* \"#utility.yul\":5251:5298   */\n      mstore\n        /* \"#utility.yul\":5315:5446   */\n      tag_155\n        /* \"#utility.yul\":5441:5445   */\n      dup2\n        /* \"#utility.yul\":5315:5446   */\n      tag_92\n      jump\t// in\n    tag_155:\n        /* \"#utility.yul\":5307:5446   */\n      swap1\n      pop\n        /* \"#utility.yul\":5034:5453   */\n      swap2\n      swap1\n      pop\n      jump\t// out\n        /* \"#utility.yul\":5459:5626   */\n    tag_93:\n        /* \"#utility.yul\":5599:5618   */\n      0x5573657220646f65736e74206578697374000000000000000000000000000000\n        /* \"#utility.yul\":5595:5596   */\n      0x00\n        /* \"#utility.yul\":5587:5593   */\n      dup3\n        /* \"#utility.yul\":5583:5597   */\n      add\n        /* \"#utility.yul\":5576:5619   */\n      mstore\n        /* \"#utility.yul\":5459:5626   */\n      pop\n      jump\t// out\n        /* \"#utility.yul\":5632:5998   */\n    tag_94:\n        /* \"#utility.yul\":5774:5777   */\n      0x00\n        /* \"#utility.yul\":5795:5862   */\n      tag_158\n        /* \"#utility.yul\":5859:5861   */\n      0x11\n        /* \"#utility.yul\":5854:5857   */\n      dup4\n        /* \"#utility.yul\":5795:5862   */\n      tag_88\n      jump\t// in\n    tag_158:\n        /* \"#utility.yul\":5788:5862   */\n      swap2\n      pop\n        /* \"#utility.yul\":5871:5964   */\n      tag_159\n        /* \"#utility.yul\":5960:5963   */\n      dup3\n        /* \"#utility.yul\":5871:5964   */\n      tag_93\n      jump\t// in\n    tag_159:\n        /* \"#utility.yul\":5989:5991   */\n      0x20\n        /* \"#utility.yul\":5984:5987   */\n      dup3\n        /* \"#utility.yul\":5980:5992   */\n      add\n        /* \"#utility.yul\":5973:5992   */\n      swap1\n      pop\n        /* \"#utility.yul\":5632:5998   */\n      swap2\n      swap1\n      pop\n      jump\t// out\n        /* \"#utility.yul\":6004:6423   */\n    tag_59:\n        /* \"#utility.yul\":6170:6174   */\n      0x00\n        /* \"#utility.yul\":6208:6210   */\n      0x20\n        /* \"#utility.yul\":6197:6206   */\n      dup3\n        /* \"#utility.yul\":6193:6211   */\n      add\n        /* \"#utility.yul\":6185:6211   */\n      swap1\n      pop\n        /* \"#utility.yul\":6257:6266   */\n      dup2\n        /* \"#utility.yul\":6251:6255   */\n      dup2\n        /* \"#utility.yul\":6247:6267   */\n      sub\n        /* \"#utility.yul\":6243:6244   */\n      0x00\n        /* \"#utility.yul\":6232:6241   */\n      dup4\n        /* \"#utility.yul\":6228:6245   */\n      add\n        /* \"#utility.yul\":6221:6268   */\n      mstore\n        /* \"#utility.yul\":6285:6416   */\n      tag_161\n        /* \"#utility.yul\":6411:6415   */\n      dup2\n        /* \"#utility.yul\":6285:6416   */\n      tag_94\n      jump\t// in\n    tag_161:\n        /* \"#utility.yul\":6277:6416   */\n      swap1\n      pop\n        /* \"#utility.yul\":6004:6423   */\n      swap2\n      swap1\n      pop\n      jump\t// out\n        /* \"#utility.yul\":6429:6576   */\n    tag_95:\n        /* \"#utility.yul\":6530:6541   */\n      0x00\n        /* \"#utility.yul\":6567:6570   */\n      dup2\n        /* \"#utility.yul\":6552:6570   */\n      swap1\n      pop\n        /* \"#utility.yul\":6429:6576   */\n      swap3\n      swap2\n      pop\n      pop\n      jump\t// out\n        /* \"#utility.yul\":6582:6696   */\n    tag_96:\n      pop\n      jump\t// out\n        /* \"#utility.yul\":6702:7100   */\n    tag_97:\n        /* \"#utility.yul\":6861:6864   */\n      0x00\n        /* \"#utility.yul\":6882:6965   */\n      tag_165\n        /* \"#utility.yul\":6963:6964   */\n      0x00\n        /* \"#utility.yul\":6958:6961   */\n      dup4\n        /* \"#utility.yul\":6882:6965   */\n      tag_95\n      jump\t// in\n    tag_165:\n        /* \"#utility.yul\":6875:6965   */\n      swap2\n      pop\n        /* \"#utility.yul\":6974:7067   */\n      tag_166\n        /* \"#utility.yul\":7063:7066   */\n      dup3\n        /* \"#utility.yul\":6974:7067   */\n      tag_96\n      jump\t// in\n    tag_166:\n        /* \"#utility.yul\":7092:7093   */\n      0x00\n        /* \"#utility.yul\":7087:7090   */\n      dup3\n        /* \"#utility.yul\":7083:7094   */\n      add\n        /* \"#utility.yul\":7076:7094   */\n      swap1\n      pop\n        /* \"#utility.yul\":6702:7100   */\n      swap2\n      swap1\n      pop\n      jump\t// out\n        /* \"#utility.yul\":7106:7485   */\n    tag_61:\n        /* \"#utility.yul\":7290:7293   */\n      0x00\n        /* \"#utility.yul\":7312:7459   */\n      tag_168\n        /* \"#utility.yul\":7455:7458   */\n      dup3\n        /* \"#utility.yul\":7312:7459   */\n      tag_97\n      jump\t// in\n    tag_168:\n        /* \"#utility.yul\":7305:7459   */\n      swap2\n      pop\n        /* \"#utility.yul\":7476:7479   */\n      dup2\n        /* \"#utility.yul\":7469:7479   */\n      swap1\n      pop\n        /* \"#utility.yul\":7106:7485   */\n      swap2\n      swap1\n      pop\n      jump\t// out\n        /* \"#utility.yul\":7491:7659   */\n    tag_98:\n        /* \"#utility.yul\":7631:7651   */\n      0x4661696c6564207472616e73616374696f6e0000000000000000000000000000\n        /* \"#utility.yul\":7627:7628   */\n      0x00\n        /* \"#utility.yul\":7619:7625   */\n      dup3\n        /* \"#utility.yul\":7615:7629   */\n      add\n        /* \"#utility.yul\":7608:7652   */\n      mstore\n        /* \"#utility.yul\":7491:7659   */\n      pop\n      jump\t// out\n        /* \"#utility.yul\":7665:8031   */\n    tag_99:\n        /* \"#utility.yul\":7807:7810   */\n      0x00\n        /* \"#utility.yul\":7828:7895   */\n      tag_171\n        /* \"#utility.yul\":7892:7894   */\n      0x12\n        /* \"#utility.yul\":7887:7890   */\n      dup4\n        /* \"#utility.yul\":7828:7895   */\n      tag_88\n      jump\t// in\n    tag_171:\n        /* \"#utility.yul\":7821:7895   */\n      swap2\n      pop\n        /* \"#utility.yul\":7904:7997   */\n      tag_172\n        /* \"#utility.yul\":7993:7996   */\n      dup3\n        /* \"#utility.yul\":7904:7997   */\n      tag_98\n      jump\t// in\n    tag_172:\n        /* \"#utility.yul\":8022:8024   */\n      0x20\n        /* \"#utility.yul\":8017:8020   */\n      dup3\n        /* \"#utility.yul\":8013:8025   */\n      add\n        /* \"#utility.yul\":8006:8025   */\n      swap1\n      pop\n        /* \"#utility.yul\":7665:8031   */\n      swap2\n      swap1\n      pop\n      jump\t// out\n        /* \"#utility.yul\":8037:8456   */\n    tag_67:\n        /* \"#utility.yul\":8203:8207   */\n      0x00\n        /* \"#utility.yul\":8241:8243   */\n      0x20\n        /* \"#utility.yul\":8230:8239   */\n      dup3\n        /* \"#utility.yul\":8226:8244   */\n      add\n        /* \"#utility.yul\":8218:8244   */\n      swap1\n      pop\n        /* \"#utility.yul\":8290:8299   */\n      dup2\n        /* \"#utility.yul\":8284:8288   */\n      dup2\n        /* \"#utility.yul\":8280:8300   */\n      sub\n        /* \"#utility.yul\":8276:8277   */\n      0x00\n        /* \"#utility.yul\":8265:8274   */\n      dup4\n        /* \"#utility.yul\":8261:8278   */\n      add\n        /* \"#utility.yul\":8254:8301   */\n      mstore\n        /* \"#utility.yul\":8318:8449   */\n      tag_174\n        /* \"#utility.yul\":8444:8448   */\n      dup2\n        /* \"#utility.yul\":8318:8449   */\n      tag_99\n      jump\t// in\n    tag_174:\n        /* \"#utility.yul\":8310:8449   */\n      swap1\n      pop\n        /* \"#utility.yul\":8037:8456   */\n      swap2\n      swap1\n      pop\n      jump\t// out\n        /* \"#utility.yul\":8462:8642   */\n    tag_100:\n        /* \"#utility.yul\":8510:8587   */\n      0x4e487b7100000000000000000000000000000000000000000000000000000000\n        /* \"#utility.yul\":8507:8508   */\n      0x00\n        /* \"#utility.yul\":8500:8588   */\n      mstore\n        /* \"#utility.yul\":8607:8611   */\n      0x11\n        /* \"#utility.yul\":8604:8605   */\n      0x04\n        /* \"#utility.yul\":8597:8612   */\n      mstore\n        /* \"#utility.yul\":8631:8635   */\n      0x24\n        /* \"#utility.yul\":8628:8629   */\n      0x00\n        /* \"#utility.yul\":8621:8636   */\n      revert\n        /* \"#utility.yul\":8648:8839   */\n    tag_70:\n        /* \"#utility.yul\":8688:8691   */\n      0x00\n        /* \"#utility.yul\":8707:8727   */\n      tag_177\n        /* \"#utility.yul\":8725:8726   */\n      dup3\n        /* \"#utility.yul\":8707:8727   */\n      tag_74\n      jump\t// in\n    tag_177:\n        /* \"#utility.yul\":8702:8727   */\n      swap2\n      pop\n        /* \"#utility.yul\":8741:8761   */\n      tag_178\n        /* \"#utility.yul\":8759:8760   */\n      dup4\n        /* \"#utility.yul\":8741:8761   */\n      tag_74\n      jump\t// in\n    tag_178:\n        /* \"#utility.yul\":8736:8761   */\n      swap3\n      pop\n        /* \"#utility.yul\":8784:8785   */\n      dup3\n        /* \"#utility.yul\":8781:8782   */\n      dup3\n        /* \"#utility.yul\":8777:8786   */\n      add\n        /* \"#utility.yul\":8770:8786   */\n      swap1\n      pop\n        /* \"#utility.yul\":8805:8808   */\n      dup1\n        /* \"#utility.yul\":8802:8803   */\n      dup3\n        /* \"#utility.yul\":8799:8809   */\n      gt\n        /* \"#utility.yul\":8796:8832   */\n      iszero\n      tag_179\n      jumpi\n        /* \"#utility.yul\":8812:8830   */\n      tag_180\n      tag_100\n      jump\t// in\n    tag_180:\n        /* \"#utility.yul\":8796:8832   */\n    tag_179:\n        /* \"#utility.yul\":8648:8839   */\n      swap3\n      swap2\n      pop\n      pop\n      jump\t// out\n\n    auxdata: 0xa2646970667358221220bf6bc381635d6d321c2656e7edaf0376808b5751da349fe950a03acbda697d7164736f6c63430008180033\n}\n",
				"bytecode": {
					"linkReferences": {},
					"object": "608060405234801561000f575f80fd5b50335f806101000a81548173ffffffffffffffffffffffffffffffffffffffff021916908373ffffffffffffffffffffffffffffffffffffffff1602179055506109e48061005c5f395ff3fe60806040526004361061007a575f3560e01c80638da5cb5b1161004d5780638da5cb5b14610111578063b60d42881461013b578063b931e61614610159578063dc0d3dff146101835761007a565b8063213dbea21461007e578063447d6f24146100a857806381e7e20e146100be57806388bb5396146100fb575b5f80fd5b348015610089575f80fd5b506100926101bf565b60405161009f91906105e4565b60405180910390f35b3480156100b3575f80fd5b506100bc6101cb565b005b3480156100c9575f80fd5b506100e460048036038101906100df919061065b565b610274565b6040516100f2929190610686565b60405180910390f35b348015610106575f80fd5b5061010f610294565b005b34801561011c575f80fd5b50610125610491565b60405161013291906106bc565b60405180910390f35b6101436104b4565b60405161015091906106ef565b60405180910390f35b348015610164575f80fd5b5061016d61057f565b60405161017a91906106ef565b60405180910390f35b34801561018e575f80fd5b506101a960048036038101906101a49190610732565b610591565b6040516101b691906106bc565b60405180910390f35b674563918244f4000081565b5f8054906101000a900473ffffffffffffffffffffffffffffffffffffffff1673ffffffffffffffffffffffffffffffffffffffff163373ffffffffffffffffffffffffffffffffffffffff1614610258576040517f08c379a000000000000000000000000000000000000000000000000000000000815260040161024f906107b7565b60405180910390fd5b60015f60146101000a81548160ff021916908315150217905550565b6002602052805f5260405f205f91509050805f0154908060010154905082565b5f60149054906101000a900460ff166102e2576040517f08c379a00000000000000000000000000000000000000000000000000000000081526004016102d99061081f565b60405180910390fd5b5f60025f3373ffffffffffffffffffffffffffffffffffffffff1673ffffffffffffffffffffffffffffffffffffffff1681526020019081526020015f205f015411610363576040517f08c379a000000000000000000000000000000000000000000000000000000000815260040161035a90610887565b60405180910390fd5b5f3373ffffffffffffffffffffffffffffffffffffffff1660025f3373ffffffffffffffffffffffffffffffffffffffff1673ffffffffffffffffffffffffffffffffffffffff1681526020019081526020015f205f01546040516103c7906108d2565b5f6040518083038185875af1925050503d805f8114610401576040519150601f19603f3d011682016040523d82523d5f602084013e610406565b606091505b505090505f60025f3373ffffffffffffffffffffffffffffffffffffffff1673ffffffffffffffffffffffffffffffffffffffff1681526020019081526020015f205f01819055508061048e576040517f08c379a000000000000000000000000000000000000000000000000000000000815260040161048590610930565b60405180910390fd5b50565b5f8054906101000a900473ffffffffffffffffffffffffffffffffffffffff1681565b5f8060025f3373ffffffffffffffffffffffffffffffffffffffff1673ffffffffffffffffffffffffffffffffffffffff1681526020019081526020015f20905034815f015f828254610507919061097b565b92505081905550428160010181905550600133908060018154018082558091505060019003905f5260205f20015f9091909190916101000a81548173ffffffffffffffffffffffffffffffffffffffff021916908373ffffffffffffffffffffffffffffffffffffffff160217905550600191505090565b5f60149054906101000a900460ff1681565b600181815481106105a0575f80fd5b905f5260205f20015f915054906101000a900473ffffffffffffffffffffffffffffffffffffffff1681565b5f819050919050565b6105de816105cc565b82525050565b5f6020820190506105f75f8301846105d5565b92915050565b5f80fd5b5f73ffffffffffffffffffffffffffffffffffffffff82169050919050565b5f61062a82610601565b9050919050565b61063a81610620565b8114610644575f80fd5b50565b5f8135905061065581610631565b92915050565b5f602082840312156106705761066f6105fd565b5b5f61067d84828501610647565b91505092915050565b5f6040820190506106995f8301856105d5565b6106a660208301846105d5565b9392505050565b6106b681610620565b82525050565b5f6020820190506106cf5f8301846106ad565b92915050565b5f8115159050919050565b6106e9816106d5565b82525050565b5f6020820190506107025f8301846106e0565b92915050565b610711816105cc565b811461071b575f80fd5b50565b5f8135905061072c81610708565b92915050565b5f60208284031215610747576107466105fd565b5b5f6107548482850161071e565b91505092915050565b5f82825260208201905092915050565b7f4f6e6c796f776e65722063616e2063616c6c00000000000000000000000000005f82015250565b5f6107a160128361075d565b91506107ac8261076d565b602082019050919050565b5f6020820190508181035f8301526107ce81610795565b9050919050565b7f5769746864726177616c206e6f7420617661696c61626c6500000000000000005f82015250565b5f61080960188361075d565b9150610814826107d5565b602082019050919050565b5f6020820190508181035f830152610836816107fd565b9050919050565b7f5573657220646f65736e742065786973740000000000000000000000000000005f82015250565b5f61087160118361075d565b915061087c8261083d565b602082019050919050565b5f6020820190508181035f83015261089e81610865565b9050919050565b5f81905092915050565b50565b5f6108bd5f836108a5565b91506108c8826108af565b5f82019050919050565b5f6108dc826108b2565b9150819050919050565b7f4661696c6564207472616e73616374696f6e00000000000000000000000000005f82015250565b5f61091a60128361075d565b9150610925826108e6565b602082019050919050565b5f6020820190508181035f8301526109478161090e565b9050919050565b7f4e487b71000000000000000000000000000000000000000000000000000000005f52601160045260245ffd5b5f610985826105cc565b9150610990836105cc565b92508282019050808211156109a8576109a761094e565b5b9291505056fea2646970667358221220bf6bc381635d6d321c2656e7edaf0376808b5751da349fe950a03acbda697d7164736f6c63430008180033",
					"opcodes": "PUSH1 0x80 PUSH1 0x40 MSTORE CALLVALUE DUP1 ISZERO PUSH2 0xF JUMPI PUSH0 DUP1 REVERT JUMPDEST POP CALLER PUSH0 DUP1 PUSH2 0x100 EXP DUP2 SLOAD DUP2 PUSH20 0xFFFFFFFFFFFFFFFFFFFFFFFFFFFFFFFFFFFFFFFF MUL NOT AND SWAP1 DUP4 PUSH20 0xFFFFFFFFFFFFFFFFFFFFFFFFFFFFFFFFFFFFFFFF AND MUL OR SWAP1 SSTORE POP PUSH2 0x9E4 DUP1 PUSH2 0x5C PUSH0 CODECOPY PUSH0 RETURN INVALID PUSH1 0x80 PUSH1 0x40 MSTORE PUSH1 0x4 CALLDATASIZE LT PUSH2 0x7A JUMPI PUSH0 CALLDATALOAD PUSH1 0xE0 SHR DUP1 PUSH4 0x8DA5CB5B GT PUSH2 0x4D JUMPI DUP1 PUSH4 0x8DA5CB5B EQ PUSH2 0x111 JUMPI DUP1 PUSH4 0xB60D4288 EQ PUSH2 0x13B JUMPI DUP1 PUSH4 0xB931E616 EQ PUSH2 0x159 JUMPI DUP1 PUSH4 0xDC0D3DFF EQ PUSH2 0x183 JUMPI PUSH2 0x7A JUMP JUMPDEST DUP1 PUSH4 0x213DBEA2 EQ PUSH2 0x7E JUMPI DUP1 PUSH4 0x447D6F24 EQ PUSH2 0xA8 JUMPI DUP1 PUSH4 0x81E7E20E EQ PUSH2 0xBE JUMPI DUP1 PUSH4 0x88BB5396 EQ PUSH2 0xFB JUMPI JUMPDEST PUSH0 DUP1 REVERT JUMPDEST CALLVALUE DUP1 ISZERO PUSH2 0x89 JUMPI PUSH0 DUP1 REVERT JUMPDEST POP PUSH2 0x92 PUSH2 0x1BF JUMP JUMPDEST PUSH1 0x40 MLOAD PUSH2 0x9F SWAP2 SWAP1 PUSH2 0x5E4 JUMP JUMPDEST PUSH1 0x40 MLOAD DUP1 SWAP2 SUB SWAP1 RETURN JUMPDEST CALLVALUE DUP1 ISZERO PUSH2 0xB3 JUMPI PUSH0 DUP1 REVERT JUMPDEST POP PUSH2 0xBC PUSH2 0x1CB JUMP JUMPDEST STOP JUMPDEST CALLVALUE DUP1 ISZERO PUSH2 0xC9 JUMPI PUSH0 DUP1 REVERT JUMPDEST POP PUSH2 0xE4 PUSH1 0x4 DUP1 CALLDATASIZE SUB DUP2 ADD SWAP1 PUSH2 0xDF SWAP2 SWAP1 PUSH2 0x65B JUMP JUMPDEST PUSH2 0x274 JUMP JUMPDEST PUSH1 0x40 MLOAD PUSH2 0xF2 SWAP3 SWAP2 SWAP1 PUSH2 0x686 JUMP JUMPDEST PUSH1 0x40 MLOAD DUP1 SWAP2 SUB SWAP1 RETURN JUMPDEST CALLVALUE DUP1 ISZERO PUSH2 0x106 JUMPI PUSH0 DUP1 REVERT JUMPDEST POP PUSH2 0x10F PUSH2 0x294 JUMP JUMPDEST STOP JUMPDEST CALLVALUE DUP1 ISZERO PUSH2 0x11C JUMPI PUSH0 DUP1 REVERT JUMPDEST POP PUSH2 0x125 PUSH2 0x491 JUMP JUMPDEST PUSH1 0x40 MLOAD PUSH2 0x132 SWAP2 SWAP1 PUSH2 0x6BC JUMP JUMPDEST PUSH1 0x40 MLOAD DUP1 SWAP2 SUB SWAP1 RETURN JUMPDEST PUSH2 0x143 PUSH2 0x4B4 JUMP JUMPDEST PUSH1 0x40 MLOAD PUSH2 0x150 SWAP2 SWAP1 PUSH2 0x6EF JUMP JUMPDEST PUSH1 0x40 MLOAD DUP1 SWAP2 SUB SWAP1 RETURN JUMPDEST CALLVALUE DUP1 ISZERO PUSH2 0x164 JUMPI PUSH0 DUP1 REVERT JUMPDEST POP PUSH2 0x16D PUSH2 0x57F JUMP JUMPDEST PUSH1 0x40 MLOAD PUSH2 0x17A SWAP2 SWAP1 PUSH2 0x6EF JUMP JUMPDEST PUSH1 0x40 MLOAD DUP1 SWAP2 SUB SWAP1 RETURN JUMPDEST CALLVALUE DUP1 ISZERO PUSH2 0x18E JUMPI PUSH0 DUP1 REVERT JUMPDEST POP PUSH2 0x1A9 PUSH1 0x4 DUP1 CALLDATASIZE SUB DUP2 ADD SWAP1 PUSH2 0x1A4 SWAP2 SWAP1 PUSH2 0x732 JUMP JUMPDEST PUSH2 0x591 JUMP JUMPDEST PUSH1 0x40 MLOAD PUSH2 0x1B6 SWAP2 SWAP1 PUSH2 0x6BC JUMP JUMPDEST PUSH1 0x40 MLOAD DUP1 SWAP2 SUB SWAP1 RETURN JUMPDEST PUSH8 0x4563918244F40000 DUP2 JUMP JUMPDEST PUSH0 DUP1 SLOAD SWAP1 PUSH2 0x100 EXP SWAP1 DIV PUSH20 0xFFFFFFFFFFFFFFFFFFFFFFFFFFFFFFFFFFFFFFFF AND PUSH20 0xFFFFFFFFFFFFFFFFFFFFFFFFFFFFFFFFFFFFFFFF AND CALLER PUSH20 0xFFFFFFFFFFFFFFFFFFFFFFFFFFFFFFFFFFFFFFFF AND EQ PUSH2 0x258 JUMPI PUSH1 0x40 MLOAD PUSH32 0x8C379A000000000000000000000000000000000000000000000000000000000 DUP2 MSTORE PUSH1 0x4 ADD PUSH2 0x24F SWAP1 PUSH2 0x7B7 JUMP JUMPDEST PUSH1 0x40 MLOAD DUP1 SWAP2 SUB SWAP1 REVERT JUMPDEST PUSH1 0x1 PUSH0 PUSH1 0x14 PUSH2 0x100 EXP DUP2 SLOAD DUP2 PUSH1 0xFF MUL NOT AND SWAP1 DUP4 ISZERO ISZERO MUL OR SWAP1 SSTORE POP JUMP JUMPDEST PUSH1 0x2 PUSH1 0x20 MSTORE DUP1 PUSH0 MSTORE PUSH1 0x40 PUSH0 KECCAK256 PUSH0 SWAP2 POP SWAP1 POP DUP1 PUSH0 ADD SLOAD SWAP1 DUP1 PUSH1 0x1 ADD SLOAD SWAP1 POP DUP3 JUMP JUMPDEST PUSH0 PUSH1 0x14 SWAP1 SLOAD SWAP1 PUSH2 0x100 EXP SWAP1 DIV PUSH1 0xFF AND PUSH2 0x2E2 JUMPI PUSH1 0x40 MLOAD PUSH32 0x8C379A000000000000000000000000000000000000000000000000000000000 DUP2 MSTORE PUSH1 0x4 ADD PUSH2 0x2D9 SWAP1 PUSH2 0x81F JUMP JUMPDEST PUSH1 0x40 MLOAD DUP1 SWAP2 SUB SWAP1 REVERT JUMPDEST PUSH0 PUSH1 0x2 PUSH0 CALLER PUSH20 0xFFFFFFFFFFFFFFFFFFFFFFFFFFFFFFFFFFFFFFFF AND PUSH20 0xFFFFFFFFFFFFFFFFFFFFFFFFFFFFFFFFFFFFFFFF AND DUP2 MSTORE PUSH1 0x20 ADD SWAP1 DUP2 MSTORE PUSH1 0x20 ADD PUSH0 KECCAK256 PUSH0 ADD SLOAD GT PUSH2 0x363 JUMPI PUSH1 0x40 MLOAD PUSH32 0x8C379A000000000000000000000000000000000000000000000000000000000 DUP2 MSTORE PUSH1 0x4 ADD PUSH2 0x35A SWAP1 PUSH2 0x887 JUMP JUMPDEST PUSH1 0x40 MLOAD DUP1 SWAP2 SUB SWAP1 REVERT JUMPDEST PUSH0 CALLER PUSH20 0xFFFFFFFFFFFFFFFFFFFFFFFFFFFFFFFFFFFFFFFF AND PUSH1 0x2 PUSH0 CALLER PUSH20 0xFFFFFFFFFFFFFFFFFFFFFFFFFFFFFFFFFFFFFFFF AND PUSH20 0xFFFFFFFFFFFFFFFFFFFFFFFFFFFFFFFFFFFFFFFF AND DUP2 MSTORE PUSH1 0x20 ADD SWAP1 DUP2 MSTORE PUSH1 0x20 ADD PUSH0 KECCAK256 PUSH0 ADD SLOAD PUSH1 0x40 MLOAD PUSH2 0x3C7 SWAP1 PUSH2 0x8D2 JUMP JUMPDEST PUSH0 PUSH1 0x40 MLOAD DUP1 DUP4 SUB DUP2 DUP6 DUP8 GAS CALL SWAP3 POP POP POP RETURNDATASIZE DUP1 PUSH0 DUP2 EQ PUSH2 0x401 JUMPI PUSH1 0x40 MLOAD SWAP2 POP PUSH1 0x1F NOT PUSH1 0x3F RETURNDATASIZE ADD AND DUP3 ADD PUSH1 0x40 MSTORE RETURNDATASIZE DUP3 MSTORE RETURNDATASIZE PUSH0 PUSH1 0x20 DUP5 ADD RETURNDATACOPY PUSH2 0x406 JUMP JUMPDEST PUSH1 0x60 SWAP2 POP JUMPDEST POP POP SWAP1 POP PUSH0 PUSH1 0x2 PUSH0 CALLER PUSH20 0xFFFFFFFFFFFFFFFFFFFFFFFFFFFFFFFFFFFFFFFF AND PUSH20 0xFFFFFFFFFFFFFFFFFFFFFFFFFFFFFFFFFFFFFFFF AND DUP2 MSTORE PUSH1 0x20 ADD SWAP1 DUP2 MSTORE PUSH1 0x20 ADD PUSH0 KECCAK256 PUSH0 ADD DUP2 SWAP1 SSTORE POP DUP1 PUSH2 0x48E JUMPI PUSH1 0x40 MLOAD PUSH32 0x8C379A000000000000000000000000000000000000000000000000000000000 DUP2 MSTORE PUSH1 0x4 ADD PUSH2 0x485 SWAP1 PUSH2 0x930 JUMP JUMPDEST PUSH1 0x40 MLOAD DUP1 SWAP2 SUB SWAP1 REVERT JUMPDEST POP JUMP JUMPDEST PUSH0 DUP1 SLOAD SWAP1 PUSH2 0x100 EXP SWAP1 DIV PUSH20 0xFFFFFFFFFFFFFFFFFFFFFFFFFFFFFFFFFFFFFFFF AND DUP2 JUMP JUMPDEST PUSH0 DUP1 PUSH1 0x2 PUSH0 CALLER PUSH20 0xFFFFFFFFFFFFFFFFFFFFFFFFFFFFFFFFFFFFFFFF AND PUSH20 0xFFFFFFFFFFFFFFFFFFFFFFFFFFFFFFFFFFFFFFFF AND DUP2 MSTORE PUSH1 0x20 ADD SWAP1 DUP2 MSTORE PUSH1 0x20 ADD PUSH0 KECCAK256 SWAP1 POP CALLVALUE DUP2 PUSH0 ADD PUSH0 DUP3 DUP3 SLOAD PUSH2 0x507 SWAP2 SWAP1 PUSH2 0x97B JUMP JUMPDEST SWAP3 POP POP DUP2 SWAP1 SSTORE POP TIMESTAMP DUP2 PUSH1 0x1 ADD DUP2 SWAP1 SSTORE POP PUSH1 0x1 CALLER SWAP1 DUP1 PUSH1 0x1 DUP2 SLOAD ADD DUP1 DUP3 SSTORE DUP1 SWAP2 POP POP PUSH1 0x1 SWAP1 SUB SWAP1 PUSH0 MSTORE PUSH1 0x20 PUSH0 KECCAK256 ADD PUSH0 SWAP1 SWAP2 SWAP1 SWAP2 SWAP1 SWAP2 PUSH2 0x100 EXP DUP2 SLOAD DUP2 PUSH20 0xFFFFFFFFFFFFFFFFFFFFFFFFFFFFFFFFFFFFFFFF MUL NOT AND SWAP1 DUP4 PUSH20 0xFFFFFFFFFFFFFFFFFFFFFFFFFFFFFFFFFFFFFFFF AND MUL OR SWAP1 SSTORE POP PUSH1 0x1 SWAP2 POP POP SWAP1 JUMP JUMPDEST PUSH0 PUSH1 0x14 SWAP1 SLOAD SWAP1 PUSH2 0x100 EXP SWAP1 DIV PUSH1 0xFF AND DUP2 JUMP JUMPDEST PUSH1 0x1 DUP2 DUP2 SLOAD DUP2 LT PUSH2 0x5A0 JUMPI PUSH0 DUP1 REVERT JUMPDEST SWAP1 PUSH0 MSTORE PUSH1 0x20 PUSH0 KECCAK256 ADD PUSH0 SWAP2 POP SLOAD SWAP1 PUSH2 0x100 EXP SWAP1 DIV PUSH20 0xFFFFFFFFFFFFFFFFFFFFFFFFFFFFFFFFFFFFFFFF AND DUP2 JUMP JUMPDEST PUSH0 DUP2 SWAP1 POP SWAP2 SWAP1 POP JUMP JUMPDEST PUSH2 0x5DE DUP2 PUSH2 0x5CC JUMP JUMPDEST DUP3 MSTORE POP POP JUMP JUMPDEST PUSH0 PUSH1 0x20 DUP3 ADD SWAP1 POP PUSH2 0x5F7 PUSH0 DUP4 ADD DUP5 PUSH2 0x5D5 JUMP JUMPDEST SWAP3 SWAP2 POP POP JUMP JUMPDEST PUSH0 DUP1 REVERT JUMPDEST PUSH0 PUSH20 0xFFFFFFFFFFFFFFFFFFFFFFFFFFFFFFFFFFFFFFFF DUP3 AND SWAP1 POP SWAP2 SWAP1 POP JUMP JUMPDEST PUSH0 PUSH2 0x62A DUP3 PUSH2 0x601 JUMP JUMPDEST SWAP1 POP SWAP2 SWAP1 POP JUMP JUMPDEST PUSH2 0x63A DUP2 PUSH2 0x620 JUMP JUMPDEST DUP2 EQ PUSH2 0x644 JUMPI PUSH0 DUP1 REVERT JUMPDEST POP JUMP JUMPDEST PUSH0 DUP2 CALLDATALOAD SWAP1 POP PUSH2 0x655 DUP2 PUSH2 0x631 JUMP JUMPDEST SWAP3 SWAP2 POP POP JUMP JUMPDEST PUSH0 PUSH1 0x20 DUP3 DUP5 SUB SLT ISZERO PUSH2 0x670 JUMPI PUSH2 0x66F PUSH2 0x5FD JUMP JUMPDEST JUMPDEST PUSH0 PUSH2 0x67D DUP5 DUP3 DUP6 ADD PUSH2 0x647 JUMP JUMPDEST SWAP2 POP POP SWAP3 SWAP2 POP POP JUMP JUMPDEST PUSH0 PUSH1 0x40 DUP3 ADD SWAP1 POP PUSH2 0x699 PUSH0 DUP4 ADD DUP6 PUSH2 0x5D5 JUMP JUMPDEST PUSH2 0x6A6 PUSH1 0x20 DUP4 ADD DUP5 PUSH2 0x5D5 JUMP JUMPDEST SWAP4 SWAP3 POP POP POP JUMP JUMPDEST PUSH2 0x6B6 DUP2 PUSH2 0x620 JUMP JUMPDEST DUP3 MSTORE POP POP JUMP JUMPDEST PUSH0 PUSH1 0x20 DUP3 ADD SWAP1 POP PUSH2 0x6CF PUSH0 DUP4 ADD DUP5 PUSH2 0x6AD JUMP JUMPDEST SWAP3 SWAP2 POP POP JUMP JUMPDEST PUSH0 DUP2 ISZERO ISZERO SWAP1 POP SWAP2 SWAP1 POP JUMP JUMPDEST PUSH2 0x6E9 DUP2 PUSH2 0x6D5 JUMP JUMPDEST DUP3 MSTORE POP POP JUMP JUMPDEST PUSH0 PUSH1 0x20 DUP3 ADD SWAP1 POP PUSH2 0x702 PUSH0 DUP4 ADD DUP5 PUSH2 0x6E0 JUMP JUMPDEST SWAP3 SWAP2 POP POP JUMP JUMPDEST PUSH2 0x711 DUP2 PUSH2 0x5CC JUMP JUMPDEST DUP2 EQ PUSH2 0x71B JUMPI PUSH0 DUP1 REVERT JUMPDEST POP JUMP JUMPDEST PUSH0 DUP2 CALLDATALOAD SWAP1 POP PUSH2 0x72C DUP2 PUSH2 0x708 JUMP JUMPDEST SWAP3 SWAP2 POP POP JUMP JUMPDEST PUSH0 PUSH1 0x20 DUP3 DUP5 SUB SLT ISZERO PUSH2 0x747 JUMPI PUSH2 0x746 PUSH2 0x5FD JUMP JUMPDEST JUMPDEST PUSH0 PUSH2 0x754 DUP5 DUP3 DUP6 ADD PUSH2 0x71E JUMP JUMPDEST SWAP2 POP POP SWAP3 SWAP2 POP POP JUMP JUMPDEST PUSH0 DUP3 DUP3 MSTORE PUSH1 0x20 DUP3 ADD SWAP1 POP SWAP3 SWAP2 POP POP JUMP JUMPDEST PUSH32 0x4F6E6C796F776E65722063616E2063616C6C0000000000000000000000000000 PUSH0 DUP3 ADD MSTORE POP JUMP JUMPDEST PUSH0 PUSH2 0x7A1 PUSH1 0x12 DUP4 PUSH2 0x75D JUMP JUMPDEST SWAP2 POP PUSH2 0x7AC DUP3 PUSH2 0x76D JUMP JUMPDEST PUSH1 0x20 DUP3 ADD SWAP1 POP SWAP2 SWAP1 POP JUMP JUMPDEST PUSH0 PUSH1 0x20 DUP3 ADD SWAP1 POP DUP2 DUP2 SUB PUSH0 DUP4 ADD MSTORE PUSH2 0x7CE DUP2 PUSH2 0x795 JUMP JUMPDEST SWAP1 POP SWAP2 SWAP1 POP JUMP JUMPDEST PUSH32 0x5769746864726177616C206E6F7420617661696C61626C650000000000000000 PUSH0 DUP3 ADD MSTORE POP JUMP JUMPDEST PUSH0 PUSH2 0x809 PUSH1 0x18 DUP4 PUSH2 0x75D JUMP JUMPDEST SWAP2 POP PUSH2 0x814 DUP3 PUSH2 0x7D5 JUMP JUMPDEST PUSH1 0x20 DUP3 ADD SWAP1 POP SWAP2 SWAP1 POP JUMP JUMPDEST PUSH0 PUSH1 0x20 DUP3 ADD SWAP1 POP DUP2 DUP2 SUB PUSH0 DUP4 ADD MSTORE PUSH2 0x836 DUP2 PUSH2 0x7FD JUMP JUMPDEST SWAP1 POP SWAP2 SWAP1 POP JUMP JUMPDEST PUSH32 0x5573657220646F65736E74206578697374000000000000000000000000000000 PUSH0 DUP3 ADD MSTORE POP JUMP JUMPDEST PUSH0 PUSH2 0x871 PUSH1 0x11 DUP4 PUSH2 0x75D JUMP JUMPDEST SWAP2 POP PUSH2 0x87C DUP3 PUSH2 0x83D JUMP JUMPDEST PUSH1 0x20 DUP3 ADD SWAP1 POP SWAP2 SWAP1 POP JUMP JUMPDEST PUSH0 PUSH1 0x20 DUP3 ADD SWAP1 POP DUP2 DUP2 SUB PUSH0 DUP4 ADD MSTORE PUSH2 0x89E DUP2 PUSH2 0x865 JUMP JUMPDEST SWAP1 POP SWAP2 SWAP1 POP JUMP JUMPDEST PUSH0 DUP2 SWAP1 POP SWAP3 SWAP2 POP POP JUMP JUMPDEST POP JUMP JUMPDEST PUSH0 PUSH2 0x8BD PUSH0 DUP4 PUSH2 0x8A5 JUMP JUMPDEST SWAP2 POP PUSH2 0x8C8 DUP3 PUSH2 0x8AF JUMP JUMPDEST PUSH0 DUP3 ADD SWAP1 POP SWAP2 SWAP1 POP JUMP JUMPDEST PUSH0 PUSH2 0x8DC DUP3 PUSH2 0x8B2 JUMP JUMPDEST SWAP2 POP DUP2 SWAP1 POP SWAP2 SWAP1 POP JUMP JUMPDEST PUSH32 0x4661696C6564207472616E73616374696F6E0000000000000000000000000000 PUSH0 DUP3 ADD MSTORE POP JUMP JUMPDEST PUSH0 PUSH2 0x91A PUSH1 0x12 DUP4 PUSH2 0x75D JUMP JUMPDEST SWAP2 POP PUSH2 0x925 DUP3 PUSH2 0x8E6 JUMP JUMPDEST PUSH1 0x20 DUP3 ADD SWAP1 POP SWAP2 SWAP1 POP JUMP JUMPDEST PUSH0 PUSH1 0x20 DUP3 ADD SWAP1 POP DUP2 DUP2 SUB PUSH0 DUP4 ADD MSTORE PUSH2 0x947 DUP2 PUSH2 0x90E JUMP JUMPDEST SWAP1 POP SWAP2 SWAP1 POP JUMP JUMPDEST PUSH32 0x4E487B7100000000000000000000000000000000000000000000000000000000 PUSH0 MSTORE PUSH1 0x11 PUSH1 0x4 MSTORE PUSH1 0x24 PUSH0 REVERT JUMPDEST PUSH0 PUSH2 0x985 DUP3 PUSH2 0x5CC JUMP JUMPDEST SWAP2 POP PUSH2 0x990 DUP4 PUSH2 0x5CC JUMP JUMPDEST SWAP3 POP DUP3 DUP3 ADD SWAP1 POP DUP1 DUP3 GT ISZERO PUSH2 0x9A8 JUMPI PUSH2 0x9A7 PUSH2 0x94E JUMP JUMPDEST JUMPDEST SWAP3 SWAP2 POP POP JUMP INVALID LOG2 PUSH5 0x6970667358 0x22 SLT KECCAK256 0xBF PUSH12 0xC381635D6D321C2656E7EDAF SUB PUSH23 0x808B5751DA349FE950A03ACBDA697D7164736F6C634300 ADDMOD XOR STOP CALLER "
				},
				"gasEstimates": {
					"creation": {
						"codeDepositCost": "506400",
						"executionCost": "24806",
						"totalCost": "531206"
					},
					"external": {
						"MIN_USD()": "326",
						"Userwithdraw()": "infinite",
						"fund()": "infinite",
						"funders(uint256)": "5010",
						"owner()": "2505",
						"setWithdrawal()": "2560",
						"setWithdrawalFunc()": "26648",
						"user(address)": "infinite"
					}
				},
				"methodIdentifiers": {
					"MIN_USD()": "213dbea2",
					"Userwithdraw()": "88bb5396",
					"fund()": "b60d4288",
					"funders(uint256)": "dc0d3dff",
					"owner()": "8da5cb5b",
					"setWithdrawal()": "b931e616",
					"setWithdrawalFunc()": "447d6f24",
					"user(address)": "81e7e20e"
				}
			},
			"storageLayout": {
				"storage": [
					{
						"astId": 57,
						"contract": "RemixFundMe/FundMe.sol:FundMe",
						"label": "owner",
						"offset": 0,
						"slot": "0",
						"type": "t_address"
					},
					{
						"astId": 59,
						"contract": "RemixFundMe/FundMe.sol:FundMe",
						"label": "setWithdrawal",
						"offset": 20,
						"slot": "0",
						"type": "t_bool"
					},
					{
						"astId": 67,
						"contract": "RemixFundMe/FundMe.sol:FundMe",
						"label": "funders",
						"offset": 0,
						"slot": "1",
						"type": "t_array(t_address)dyn_storage"
					},
					{
						"astId": 72,
						"contract": "RemixFundMe/FundMe.sol:FundMe",
						"label": "user",
						"offset": 0,
						"slot": "2",
						"type": "t_mapping(t_address,t_struct(Users)64_storage)"
					}
				],
				"types": {
					"t_address": {
						"encoding": "inplace",
						"label": "address",
						"numberOfBytes": "20"
					},
					"t_array(t_address)dyn_storage": {
						"base": "t_address",
						"encoding": "dynamic_array",
						"label": "address[]",
						"numberOfBytes": "32"
					},
					"t_bool": {
						"encoding": "inplace",
						"label": "bool",
						"numberOfBytes": "1"
					},
					"t_mapping(t_address,t_struct(Users)64_storage)": {
						"encoding": "mapping",
						"key": "t_address",
						"label": "mapping(address => struct FundMe.Users)",
						"numberOfBytes": "32",
						"value": "t_struct(Users)64_storage"
					},
					"t_struct(Users)64_storage": {
						"encoding": "inplace",
						"label": "struct FundMe.Users",
						"members": [
							{
								"astId": 61,
								"contract": "RemixFundMe/FundMe.sol:FundMe",
								"label": "amount",
								"offset": 0,
								"slot": "0",
								"type": "t_uint256"
							},
							{
								"astId": 63,
								"contract": "RemixFundMe/FundMe.sol:FundMe",
								"label": "dob",
								"offset": 0,
								"slot": "1",
								"type": "t_uint256"
							}
						],
						"numberOfBytes": "64"
					},
					"t_uint256": {
						"encoding": "inplace",
						"label": "uint256",
						"numberOfBytes": "32"
					}
				}
			},
			"userdoc": {
				"kind": "user",
				"methods": {},
				"version": 1
			}
		}
	}
}